:020000040800F2
:1000000028070020390300081127000819260008D6
:1000100009270008310500083135000800000000FC
:10002000000000000000000000000000712900082E
:100030003905000800000000192700087929000888
:100040005303000853030008530300085303000838
:100050005303000853030008530300085303000828
:100060005303000853030008530300085303000818
:100070005303000853030008530300085303000808
:1000800053030008530300085303000853030008F8
:1000900053030008530300085303000853030008E8
:1000A00053030008530300085303000853030008D8
:1000B00053030008530300085303000853030008C8
:1000C00053030008530300085303000853030008B8
:1000D00053030008530300085303000853030008A8
:1000E00053030008530300080000000053030008F6
:1000F0005303000853030008530300085303000888
:100100005303000853030008530300085303000877
:100110005303000853030008530300085303000867
:100120005303000853030008530300085303000857
:100130005303000853030008530300085303000847
:1001400053030008530300080000000000000000F3
:100150005303000853030008530300085303000827
:100160005303000853030008530300085303000817
:100170005303000853030008530300080000000065
:1001800053030008530300085303000853030008F7
:1001900053030008530300085303000853030008E7
:1001A00053030008530300085303000853030008D7
:1001B00053030008530300085303000853030008C7
:1001C00053030008530300085303000853030008B7
:1001D00053030008530300085303000853030008A7
:1001E0005303000853030008530300085303000897
:1001F0005303000853030008530300085303000887
:100200005303000853030008530300085303000876
:100210005303000853030008530300085303000866
:1002200053030008530300085303000800000000B4
:100230005303000853030008530300085303000846
:100240005303000853030008530300085303000836
:100250005303000853030008530300085303000826
:100260005303000853030008530300085303000816
:100270005303000853030008530300085303000806
:100280005303000853030008530300080000000054
:10029000530300085303000800F002F800F03CF894
:1002A0000AA090E8000C82448344AAF10107DA45D1
:1002B00001D100F031F8AFF2090EBAE80F0013F0E7
:1002C000010F18BFFB1A43F001031847AC340000BC
:1002D000CC340000103A24BF78C878C1FAD852074D
:1002E00024BF30C830C144BF04680C6070470000B0
:1002F0000023002400250026103A28BF78C1FBD82F
:10030000520728BF30C148BF0B6070471FB503F0CC
:1003100004FA1FBD10B510BD00F0D0F81146FFF76C
:10032000F5FF03F009F900F0EEF803B4FFF7F2FF70
:1003300003BC00F0F5F80000094880470948004771
:10034000FEE7FEE7FEE7FEE7FEE7FEE7FEE7FEE785
:10035000FEE7FEE704480549054A064B70470000E2
:10036000492A0008990200082801002028070020D7
:10037000280300202803002053EA020C00F06980C3
:100380002DE9F04B4FF00006002B1FBFB3FA83F5A9
:1003900003FA05F424FA05F65E4012BF1643B2FADA
:1003A00082F502FA05F4C5F120051EBF22FA05FC0C
:1003B00044EA0C04203556EA044C4FEA144418BFB2
:1003C000641C4FF000084FF00009904271EB030CE1
:1003D00039D3002919BFB1FA81F701FA07F6B0FA4B
:1003E00080F700FA07F6C7F120071EBF20FA07FCC6
:1003F00046EA0C062037B6FBF4FCA7EB0507103FD6
:1004000007F01F0BCBF120062CFA06F60CFA0BFBBB
:1004100044BFB3460026202FA4BF5E464FF0000B1A
:100420005BEA060C08BF4FF0010B19EB0B0948EB18
:100430000608ABFB027C06FB02CC0BFB03CCC01B0B
:1004400071EB0C01C1E70B46024641464846BDE848
:10045000F08B13B5084318BF4FF0FF300146AFF3E0
:100460000080BDE81C4070474FF0000200B5134605
:1004700094469646203922BFA0E80C50A0E80C50C4
:10048000B1F12001BFF4F7AF090728BFA0E80C5075
:1004900048BF0CC05DF804EB890028BF40F8042B6E
:1004A00008BF704748BF20F8022B11F0804F18BFDB
:1004B00000F8012B7047704770477047754600F091
:1004C0002BF8AE4605006946534620F007008546E6
:1004D00018B020B5FFF73EFFBDE820404FF0000602
:1004E0004FF000074FF000084FF0000BAC46ACE8AF
:1004F000C009ACE8C009ACE8C009ACE8C00921F00B
:1005000007018D46704710B50446AFF300802046C2
:10051000BDE81040FFF709BF0048704720000020E9
:1005200001491820ABBEFEE726000200704700001C
:10053000FEE700000000000070470000000000001F
:10054000EFF3108072B600BFFEE70000000000006D
:10055000B0B5044600F000F940F200010546C2F2D1
:100560000001621C097818BF0C4400BF00F0F4F8C9
:10057000401BA042FAD3B0BD2DE9F04F82B00D6808
:10058000002D00F0CB8000F1264242F2004302F140
:10059000FF72C5F602030A2698424FEAB22444F2DB
:1005A000F44E08BF0926092C40F2040C38BF4FEA6C
:1005B000B226C5F6020EC5F6000C009600220027F2
:1005C000002609E001360D6835FA06F307F1040745
:1005D00002F1020200F0A280012303FA06F415EAF8
:1005E0000408EFD0D1F804A003230AF0030B9340D2
:1005F000ABF101056FEA0309012D0FD88368CD68BF
:1006000003EA090395402B438360CAF3001543684E
:10061000A34305FA06F42343436005E0BBF1030F4F
:1006200002D14FF0030B21E0C3688C6803EA090391
:100630009440BBF1020F43EA0403C36016D16FF08C
:10064000030307F01C0503EA56030F24034404FACE
:1006500005FBD3F820A00C692AEA0B0AAC4044EA57
:100660000A041C62D1F804A00AF0030B03680BFA19
:1006700002F403EA09031AF4403F43EA0403036067
:10068000A0D0DEF8003040F2084A43F00203CEF872
:100690000030DEF80030C5F6000A03F002030193D3
:1006A00026F00303019C07F00C040F2553F80A9071
:1006B000A54029EA0509009D05FA04F444EA090465
:1006C00043F80A404FF0B04ADAF800904C6849EA23
:1006D0000805E30258BF29EA0805A302CAF800503A
:1006E000DCF8009049EA080558BF29EA0805A30389
:1006F000CCF80050DCF8809049EA080558BF29EA98
:100700000805E403CCF88050DCF87C3043EA0805A7
:1007100058BF23EA0805CCF87C5053E702B0BDE887
:10072000F08F000000000000426902EA01039143DB
:1007300041EA034181617047002A08BF09048161D1
:10074000704700000000000041F20000C5F60040C4
:100750000068000C7047000040F22010C2F2000058
:10076000006870470000000046F28041C5F60201B3
:1007700051F8200040F20031C8F20001401A18BFC1
:10078000012070470000000046F2004241F4407131
:10079000C5F6020242F82010704700000000000079
:1007A00040F2000040F22011C2F20000C2F200014B
:1007B00000780A68104408607047000000000000DC
:1007C00080B5032000F0E8F801F0DAF944F21841AE
:1007D00043F24073C5F60201C0F600030A680968D7
:1007E00001F00F01C2F30322595C9A5C01F01F0172
:1007F00002F01F02D04040F20C02C2F2000220FAC6
:1008000001F1116040F20801C2F2000108600F20FE
:1008100000F00AF800281CBF012080BD00F07CF821
:10082000002080BD0000000070B540F20006C2F25A
:1008300000063178E1B1044640F20800C2F200003F
:100840004FF47A72B2FBF1F10068B0FBF1F001F005
:10085000D3FC0F2C4FF0010508D838B94FF0FF300A
:1008600000222146002500F067F87460284670BD1C
:10087000012070BD00000000B0B502784EF69C5C0F
:10088000CEF2000C43784CF8043CFAB14368CCF843
:100890000030037BC17A90F80AE0457B447A42EA53
:1008A0000372837B42EA0161C27B41EACE41007A56
:1008B00041EA854141EA434141EA024141EA0421DA
:1008C00041EA4000CCF80400B0BD00BF0020CCF8E5
:1008D0000000CCF80400B0BD4EF62450CEF200006B
:1008E000BFF35F8F016821F480310160002101674F
:1008F00070470000000000004EF6245140F0010057
:10090000CEF200010867086840F480300860BFF349
:100910004F8FBFF36F8F704781B044F2F440C5F63C
:100920000200016841F002010160006800F002006D
:100930000090009801B0704770B54EF60C5C4FF017
:10094000FF36CEF2000C00F1604505F56445DCF899
:100950000030C3F3022E8EF00703042B28BF0423BC
:10096000BEF1030406FA03F321EA030100F00F03CA
:1009700038BF0024043B0028634406FA04F048BF53
:1009800003F10C05A14022EA000008430001287091
:1009900070BD0000000000004EF60C514FF6FF0342
:1009A000CEF200010A681A4060F30A2242F0806029
:1009B00040F0FD700860704770B544F60C060446C0
:1009C000C5F602063168306801F00701062913D127
:1009D00020F03F0020433060FFF7BEFE054600BF19
:1009E00056F8080C80040DD4FFF7B6FE401BB0F596
:1009F0007A7FF5D9012070BD00F03F00001B18BFC1
:100A0000012070BDA4F11D010020112912D801227E
:100A100002FA01F111F0031F0CD0FFF79DFE04460E
:100A20003068C00308D4FFF797FE001BB0F57A7F4B
:100A3000F6D9012070BD00BF002070BD000000008D
:100A400080B501F015F844F2204143F24072C5F63A
:100A50000201C0F600020968C1F30211515C01F005
:100A60001F01C84080BD000080B544F2384EC5F675
:100A7000020E5EF8103C5EF8101C5EF80C2CC1F300
:100A8000053CDEF80410BCF1000F15D0C908D206F1
:100A900001EAE2716FF35F3100EE101A03F0030117
:100AA0000229B8EE400A0DD081B95EF8381C8906DB
:100AB00010D49FED361A1BE000218160C0E90011BF
:100AC00080BD00BF9FED301A12E000BF9FED2D1AD0
:100AD0000EE000BF5EF8381C49F20002C0F2D032CE
:100AE000C1F3C10122FA01F101EE101AB8EE411A68
:100AF000DEF800109FED263A6FF35F2102EE101A28
:100B0000DEF80010C1F34621B8EE422A00EE032AB7
:100B100000EE10CAB7EE003AB8EE400A81EE000AC5
:100B200032EE031A02EE101AB8EE422A20EE010A43
:100B300032EE031A80EE011ABCEEC11A80ED001AE3
:100B4000DEF80010C1F3064101EE101AB8EE411AAA
:100B500031EE031A80EE011ABCEEC11A80ED011AC3
:100B6000DEF80010C1F3066101EE101AB8EE411A6A
:100B700031EE031A80EE010ABCEEC00A10EE101A24
:100B8000816080BD0024744A20BCBE4B0024744C9C
:100B9000000000390000000080B544F2404EC5F668
:100BA000020E5EF8183C5EF8181C5EF8142CC1F3B7
:100BB000055CDEF80410BCF1000F15D0C908D205A1
:100BC00001EAE2716FF35F3100EE101A03F00301E6
:100BD0000229B8EE400A0DD081B95EF8401C8906A2
:100BE00010D49FED361A1BE000218160C0E900118E
:100BF00080BD00BF9FED301A12E000BF9FED2D1A9F
:100C00000EE000BF5EF8401C49F20002C0F2D03294
:100C1000C1F3C10122FA01F101EE101AB8EE411A36
:100C2000DEF800109FED263A6FF35F2102EE101AF6
:100C3000DEF80010C1F34621B8EE422A00EE032A86
:100C400000EE10CAB7EE003AB8EE400A81EE000A94
:100C500032EE031A02EE101AB8EE422A20EE010A12
:100C600032EE031A80EE011ABCEEC11A80ED001AB2
:100C7000DEF80010C1F3064101EE101AB8EE411A79
:100C800031EE031A80EE011ABCEEC11A80ED011A92
:100C9000DEF80010C1F3066101EE101AB8EE411A39
:100CA00031EE031A80EE010ABCEEC00A10EE101AF3
:100CB000816080BD0024744A20BCBE4B0024744C6B
:100CC00000000039000000002DE9F0470446C0781C
:100CD00044F22C480007C5F6020833D5A06E4FEA4F
:100CE000305103290CD8DFE801F003111D2600BFA5
:100CF000D8F8001041F40031C8F800101BE000BF24
:100D000001266078C0070BD020E000BF04F1080086
:100D1000022101F005FD064660B16078C00715D1DB
:100D2000354646E004F12800022101F08DFD06461B
:100D30000028F2D1A06ED8F8241021F44011084305
:100D4000C8F8240000266078C007E9D0A06D042808
:100D50000ED83546DFE800F00412181E1E0000BF52
:100D6000D8F80000354640F40030C8F8000011E023
:100D700001250127607880071FD452E004F10800A4
:100D8000002101F0CDFC04E004F12800002101F075
:100D90005BFD05462F461DB1607880070DD440E00D
:100DA000D8F82400A16D20F0070000250843C8F8FA
:100DB000240037466078800733D5E06D4FEAB010E5
:100DC00004280DD8DFE800F00412181E1E0000BF32
:100DD000D8F8000040F40030C8F8000012E000BF6E
:100DE00001250126607840071FD455E004F1080072
:100DF000002101F095FC04E004F12800002101F03D
:100E000023FD05462E461DB1607840070DD443E012
:100E1000D8F82400E16D20F4E07000250843C8F8FC
:100E200024003E466078400736D5D4F8A8004FEA43
:100E3000705004280CD8DFE800F00313191F1F00BE
:100E4000D8F8000040F40030C8F8000014E000BFFB
:100E500001254FF001096078000721D456E000BF5A
:100E600004F10800002101F05BFC04E004F128001B
:100E7000002101F0E9FC0546A9461DB16078000794
:100E80000ED443E0D8F82C00D4F8A81020F4600069
:100E900000250843C8F82C00B1466078000735D516
:100EA000D4F8AC004FEA306004280DD8DFE800F039
:100EB0000412181E1E0000BFD8F8000040F40030D5
:100EC000C8F8000012E000BF01250127E078800784
:100ED00020D44EE004F10800002101F021FC04E0E0
:100EE00004F12800002101F0AFFC05462F461DB19A
:100EF000E07880070ED43CE0D8F82C00D4F8AC1091
:100F000020F0E06000250843C8F82C004F46E07848
:100F100080072ED5E06C4FEA301003280ED8DFE8AA
:100F200000F00903130900BFD8F8000040F40030B6
:100F3000C8F800002E467DB912E000BF0125012649
:100F40006078C00619D44CE004F10800022101F0D9
:100F5000E7FB05462E461DB16078C0060DD440E083
:100F6000D8F82000E16C20F0300000250843C8F8D4
:100F700020003E466078C00633D5206E4FEA303000
:100F800004280DD8DFE800F00412181E1E0000BF70
:100F9000D8F8000040F40030C8F8000012E000BFAC
:100FA00001250127607880061FD44EE004F1080077
:100FB000002101F0B5FB04E004F12800002101F05C
:100FC00043FC05462F461DB1607880060DD43CE0F9
:100FD000D8F82400216E20F4E04000250843C8F82A
:100FE00024003746607880062FD5606E4FEA304087
:100FF000052809D8DFE800F0040E1404040400BF3B
:101000002E46ADB918E000BF0125012660784006E4
:101010001FD44FE004F10800012101F081FB04E03E
:1010200004F12800012101F00FFC05462E461DB1F8
:10103000607840060DD43DE0D8F82400616E20F4BD
:10104000E02000250843C8F824003E4660784006AA
:1010500030D5D4F8B0004FEA3070052808D8DFE862
:1010600000F0030D130303032F46ADB918E000BFD2
:10107000012501276078000620D442E004F1080031
:10108000012101F04DFB04E004F12800012101F0F1
:10109000DBFB05462F461DB1607800060ED430E01C
:1010A000D8F82C00D4F8B01020F0E0400025084318
:1010B000C8F82C0037466078000622D5206F58B15A
:1010C000B0F1005F0CD0B0F1805F2FD1D8F80000F4
:1010D00040F40030C8F800002E469DB908E000BF7B
:1010E00004F10800012101F01BFB05462E464DB915
:1010F000D8F82400216F20F0405000250843C8F89C
:1011000024003E46E078C00733D0A06C032813D8F3
:10111000DFE800F008021A08D8F8000040F40030B8
:10112000C8F80000A946BDB91AE000BF0125012694
:10113000E078C007E9D11CE001254FF00109A07853
:1011400040061AD51CE000BF04F10800022101F09E
:10115000E7FA0546A9461DB1A07840060DD50FE077
:10116000D8F82000A16C20F0030000250843C8F83F
:101170002000B146A078400602D44F4618E000BFD8
:10118000D8F8D40340F48070C8F8D403FFF7E4FA29
:10119000064600BFD8F8D403C00507D4FFF7DCFA31
:1011A000801B6428F6D90325032701E02F468DB163
:1011B0002078C00761D0E06F4FEAF00005283BD8E7
:1011C000DFE800F004404604040400BF002D2E4672
:1011D00046D149E0D8F84410D4F8B400414011F4A5
:1011E000407F11D0D8F84410D8F8442042F480321F
:1011F000C8F84420D8F8442021F4407122F4803209
:10120000C8F84420C8F84410B0F5807F40F0DE8272
:10121000FFF7A2FA064641F2883A0325032700BFEA
:10122000D8F84400800700F1CF82FFF795FA801BC1
:101230005045F5D9BCE700BF01260125207880077D
:101240001FD44CE004F10800012101F069FA04E028
:1012500004F12800012101F0F7FA05462E461DB1E0
:10126000207880070DD43AE0D8F82800E16F20F00C
:10127000380000250843C8F828003E46207880073B
:101280002DD5A06F052809D8DFE800F0040E14045E
:10129000040400BF2F46ADB918E000BF01270125A7
:1012A000207840071FD44DE004F10800012101F02F
:1012B00037FA04E004F12800012101F0C5FA0546DF
:1012C0002F461DB1207840070DD43BE0D8F8280008
:1012D000A16F20F0070000250843C8F82800374612
:1012E000207840072ED5D4F89400052808D8DFE8E8
:1012F00000F0030D130303032E46ADB918E000BF41
:10130000012601252078800620D451E004F1080050
:10131000012101F005FA04E004F12800012101F0A7
:1013200093FA05462E461DB1207880060ED43FE084
:10133000D8F82C00D4F8941020F0070000250843BA
:10134000C8F82C003E462078800631D5D4F89000AD
:101350004FEA3070052809D8DFE800F0040E1404C5
:10136000040400BF2F46ADB918E000BF01270125D6
:101370002078400620D451E004F10800002101F05B
:10138000CFF904E004F12800022101F05DFA0546DE
:101390002F461DB1207840060ED43FE0D8F8280033
:1013A000D4F8901020F0E04000250843C8F8280049
:1013B00037462078400631D5D4F89C004FEAB0205B
:1013C000052809D8DFE800F0040E1404040400BF67
:1013D0002E46ADB918E000BF012601252078000691
:1013E00020D454E004F10800002101F099F904E050
:1013F00004F12800022101F027FA05462E461DB10E
:10140000207800060ED442E0D8F82C00D4F89C10C6
:1014100020F4E05000250843C8F82C003E46207810
:10142000000634D5D4F8A0004FEA703005280FD854
:10143000DFE800F004141A04040400BF2F46E5B1ED
:101440002068010727D4C1063ED4000355D475E0B7
:101450000127012520680107F5D51CE004F10800EB
:10146000002101F05DF904E004F12800022101F0FF
:10147000EBF90546002D2F46E2D1D8F82C00D4F820
:10148000A01020F4604000250843C8F82C0037461F
:1014900020680107D7D5D4F88400B0F5805F09D162
:1014A00004F12800022101F0CFF9002818BF01271C
:1014B000D4F88400D8F8281021F440510843C8F823
:1014C00028002068C106C0D5D4F89800B0F5807F08
:1014D00009D104F12800022101F0B6F9002818BF53
:1014E0000127D4F89800D8F82C1021F44071084353
:1014F000C8F82C002068000320D5D4F8A400B0F56B
:10150000003F0FD0B0F5803F06D078BB04F1080053
:10151000002101F005F904E004F12800022101F0A6
:1015200093F905462E4655B9D8F82C00D4F8A410E6
:1015300020F4403000250843C8F82C003E46A0782F
:1015400040072BD5D4F88800B0F5401F0BD0B0F57C
:10155000001F11D0B0F5801F2AD1D8F8000040F448
:101560000030C8F800002F46CDB90DE00126012556
:10157000A0784007E6D411E004F12800012101F031
:1015800063F905462F4655B9D8F82800D4F88810D5
:1015900020F4401000250843C8F828003746A078FA
:1015A000C0070AD13E462168880016D533E000BF47
:1015B00001270125A078C007F4D0206DB0F5803F49
:1015C00010D018BBD8F8000040F40030C8F8000074
:1015D0002E4685B1216888001DD460688A0326D410
:1015E00069E000BF04F10800022101F099F8054606
:1015F000002D2E46EED1D8F82000216D20F4803049
:1016000000250843C8F82000CCE700BF01260125CB
:1016100021688800E1D504F12800022101F014F9C5
:10162000002818BF0126D4E900108A0343D5D4F856
:1016300080206FF0010303EB3223022B0BD34FEA20
:10164000322343B1012B40F0B980D8F8003043F485
:101650000033C8F800303DB3CA022FD4CA0037D4D3
:101660008A0240D44A0048D4CA0F55D109025DD439
:10167000C10766D181076FD4410779D4010700F112
:101680008380C10600F18C80800607D504F1280014
:10169000022101F0D9F8002818BF0125002D18BF3C
:1016A00001252846BDE8F087D8F8283023F4407398
:1016B0001A43C8F828203546CA02CFD5D8F82420C6
:1016C000636F22F000421A43C8F82420CA00C7D52D
:1016D00058F81C2CD4F8B83022F480421A4348F849
:1016E0001C2C8A02BED5D8F82420E36E22F080722A
:1016F0001A43C8F824204A00B6D558F81C2C22F406
:10170000004248F81C2CD4F8BC2058F81C3C1A4362
:1017100048F81C2CCA0FA9D0D8F82020636D22F0FD
:1017200040521A43C8F820200902A1D5D8F8281041
:10173000D4F88C2021F440011143C8F82810C107C7
:1017400098D004F10800002100F0EAFF002818BF3B
:101750000546606881078FD504F10800012100F07B
:10176000DFFF002818BF0546606841077FF586AF98
:1017700004F10800022100F0D3FF002818BF05463D
:10178000606801077FF57DAF04F12800002101F0BA
:101790005BF8002818BF05466068C1067FF574AF86
:1017A00004F12800012101F04FF8002818BF054678
:1017B000606880067FF572AF68E700BF0125CA0246
:1017C0007FF54CAF7AE700BFD4F8B4004FF6CF7383
:1017D00058F81C2CC0F2FF0300F4407122F47C5234
:1017E00003EA10136FF31F30B1F5407F08BF1A43AF
:1017F000002548F81C2CD8F844100843C8F84400C9
:10180000FFF7BBBC000000002DE9F04381B00028C9
:1018100000F02A8142F200080446C5F200288946F9
:10182000D8F8000000F00F0088420ED2D8F800006F
:1018300020F00F0040EA0900C8F80000D8F80000C6
:1018400000F00F00484540F00F81206844F218472F
:101850004107C5F602070AD521693A6802F070020D
:10186000914204D93A6822F07002114339600107AD
:101870000AD561697A6802F07002914204D97A68E7
:1018800022F0700211437960C1060AD5A1697A6815
:1018900002F4E062914204D97A6822F4E0621143D2
:1018A000796081060AD5E169BA6802F07002914256
:1018B00004D9BA6822F070021143B96010F0020135
:1018C0000AD0E2683B6803F00F039A4204D93B68F0
:1018D00023F00F031A433A60C20746D0386820F459
:1018E0007061D4E90102012841EA0201396009D09E
:1018F00003280DD0022811D157F8181C890340F194
:10190000B38010E057F8181CC90540F1AD800AE01B
:1019100057F8181C890140F1A78004E057F8181CFB
:10192000490740F1A18057F8081C21F0070108433E
:1019300047F8080CFEF710FF064641F2883500BF55
:1019400057F8080C616800F03800B0EBC10F09D0FF
:10195000FEF702FF801BA842F2D9032001B0BDE8C8
:10196000F08300BF206800F0020151B1E1683A68DD
:1019700002F00F02914204D23A6822F00F021143A2
:101980003960D8F8001001F00F0149450DD9D8F899
:10199000001021F00F0141EA0901C8F80010D8F841
:1019A000001001F00F0149455ED141070AD52169B8
:1019B0003A6802F07002914204D23A6822F0700252
:1019C0001143396001070AD561697A6802F0700233
:1019D000914204D27A6822F0700211437960C10604
:1019E0000AD5A1697A6802F4E062914204D27A6869
:1019F00022F4E0621143796080060AD5E069B96893
:101A000001F07001884204D2B96821F070010843E6
:101A1000B86000F0B5F8396843F240733A68C0F630
:101A20000003C1F3032102F00F02595C9A5C01F03C
:101A30001F0120FA01F102F01F0040F20C0221FA0E
:101A400000F0C2F20002106040F2040040F208020E
:101A5000C2F20000C2F200020068116001B0BDE8ED
:101A6000F043FEF7E1BE00BF012001B0BDE8F08306
:101A700080B500F085F844F2184143F24073C5F692
:101A80000201C0F600030A68096801F00F01C2F301
:101A90000322595C9A5C02F01F0220FA02F201F064
:101AA0001F0040F20C0122FA00F0C2F200010860AF
:101AB00040F20801C2F200010A6080BD000000008F
:101AC00080B500F05DF844F2184C43F24071C5F661
:101AD000020CC0F60001DCF80020DCF8003003F056
:101AE0000F03C2F30322CB5C8A5C02F01F02D040DA
:101AF00003F01F0240F20C0320FA02F2C2F20003CC
:101B00001A6040F20803C2F200031860DCF8040017
:101B1000C0F30210085C00F01F0022FA00F080BD44
:101B200080B500F02DF844F2184C43F24071C5F630
:101B3000020CC0F60001DCF80020DCF8003003F0F5
:101B40000F03C2F30322CB5C8A5C02F01F02D04079
:101B500003F01F0240F20C0320FA02F2C2F200036B
:101B60001A6040F20803C2F200031860DCF80400B7
:101B7000C0F30220085C00F01F0022FA00F080BDD4
:101B800044F20041C5F602010869C0F3C20003280F
:101B900010D002282ED098BB0868800649F20000B9
:101BA000C0F2D03058BF70470968C1F3C101C840C6
:101BB000704700BF8A6A886AC0F3051CC86ABCF116
:101BC000000F4B6B22D000F0010002F003024042F4
:101BD000022A00EAD3006FF35F3000EE100AB8EE7D
:101BE000400A15D0C2B90868800619D49FED281A9A
:101BF00023E000BF47F64000C0F27D10704700BFF1
:101C000040F60010C0F23D00704700BF0020704752
:101C10009FED1E1A11E000BF9FED1B1A0DE000BFE3
:101C2000086849F20002C0F2D032C0F3C10022FAC3
:101C300000F001EE100AB8EE411A086B9FED153A5C
:101C40006FF35F2002EE100A086BC0F34620B8EE77
:101C5000422A013000EE032A00EE10CAB7EE003A25
:101C6000B8EE400A81EE000A32EE031A20EE010AB5
:101C700001EE100AB8EE411A80EE010ABCEEC00A6D
:101C800010EE100A704700BF0024744A20BCBE4BFF
:101C90000024744C00000039F0B581B0002800F039
:101CA00063810446007844F20046C007C5F6020688
:101CB00022D12078800740F1BC80306910F03801D3
:101CC000B06A3FD0182908BF5FEA80703AD0E06858
:101CD0003168002862D021F0190108433060FEF716
:101CE0003BFD05463068400748D4FEF735FD401BF4
:101CF0000228F7D977E100BF306900F03801B06AF7
:101D0000102905D018290BD100F00300022807D1B3
:101D100030688003CDD560680028CAD124E100BFB7
:101D2000606800284CD0B0F5A02F61D0B0F5803F9E
:101D300062D0306820F480303060306820F4802039
:101D40005DE000BF30684007E06802D5002800F081
:101D50000B81316821F0190108433060FEF7FCFC6B
:101D6000054600BF3068400708D4FEF7F5FC401B6D
:101D700002284FF00300F5D921E200BFFEF7E4FC92
:101D800041F20301884249D820697168402821F452
:101D90007C314BD141F400304AE000BF21F001001A
:101DA0003060FEF7D9FC05463068400741D5FEF7A4
:101DB000D3FC401B02284FF00300F5D9FFE100BF20
:101DC000306820F480303060306820F4802030604B
:101DD000FEF7C2FC054600BF306880037FF569AF9F
:101DE000FEF7BAFC401B64284FF00300F4D9E6E18B
:101DF000306840F480203060306840F480303060DB
:101E0000FEF7AAFC054600BF306880033FF551AFDE
:101E1000FEF7A2FC401B6428F6D9E4E07068216953
:101E200020F0FE4040EA016002E000BF41EA0030DD
:101E300070602078C00654D5306900F03801B06A6F
:101E4000082905D0182919D100F00300012815D15F
:101E50003068C00503D5E069802840F08580FEF732
:101E600073FC41F2030188421ED8206A7168202861
:101E700021F0F84132D141F0804031E0E0690028A2
:101E8000306819D040F080003060FEF765FC0546F0
:101E90003068C005E3D4FEF75FFC401B02284FF01A
:101EA0000300F5D98BE100BFF068216A20F07C5077
:101EB00040EA0160F06014E020F080003060FEF73E
:101EC0004BFC05463068C0050BD5FEF745FC401BB2
:101ED00002284FF00300F5D971E100BF41EA8060AC
:101EE00070602078000743D42078800654D420788E
:101EF000400765D4656A9DB3306900F03800182842
:101F000040F0A880012DB16A306B2DD001F00302A2
:101F1000A36A9A4228D1C1F30511E26A914223D102
:101F20000146226B6FF35F21013A91421CD1C0F34D
:101F30004622616B01398A4216D1C0F30642A16B79
:101F400001398A4210D1C0F30660E16B0139884241
:101F50000AD1706BA16CC0F3CC00814240F0328199
:101F6000002001B0F0BD00BF012001B0F0BD00BFF6
:101F700060690028706F39D040F001007067FEF78B
:101F8000EBFB0546706F8007AED4FEF7E5FB401B08
:101F90000228F7D927E000BFA0690028306847D0A1
:101FA00040F480503060FEF7D7FB0546306880046F
:101FB0009DD4FEF7D1FB401B0228F7D913E000BFE8
:101FC000D6F8000440F48070C6F80004FEF7C4FBA5
:101FD000054600BFD6F80004C00519D4FEF7BCFBC7
:101FE000401B6428F6D9032001B0F0BD20F00100A9
:101FF0007067FEF7B1FB0546706F80077FF574AF21
:10200000FEF7AAFB401B02284FF00300F4D9D6E0EC
:10201000A068002840D0052858D001285AD0306F39
:1020200020F001003067306F20F0040055E000BF61
:1020300020F480503060FEF78FFB05463068800446
:102040007FF555AFFEF788FB401B02284FF00300D9
:10205000F4D9B4E0306820F080703060FEF77CFB8B
:10206000022D05460CD100BF3068800148D5FEF72F
:1020700073FB401B02284FF00300F5D99FE000BF1F
:10208000306880017FF56CAFFEF766FB401B0228CD
:102090004FF00300F4D992E0306F20F00100306778
:1020A000306F20F004003067FEF756FB054641F222
:1020B0008837306F80077FF51DAFFEF74DFB401B63
:1020C000B8424FF00300F4D979E000BF306F40F020
:1020D00004003067306F40F001003067FEF73CFBD2
:1020E000054641F2883700BF306F80073FF502AFE9
:1020F000FEF732FB401BB8424FF00300F4D95EE01C
:1021000004F12807B06A40F2F33188438ECF0843C8
:10211000591E40EA02104FF47E426FF35F21B06215
:1021200002EB47204FF4FE0280B2E36B0844A16B40
:1021300002EB01414FF0FE4201F4FE0102EB0362AB
:10214000084402F0FE4108443063F06A4FF6F8712B
:1021500020F00100F062706BA26C884340EAC2007C
:102160007063F06A216C20F00C000843F062F06AA2
:10217000616C20F002000843F062F06A40F48030A5
:10218000F062F06A40F40030F062F06A40F48020BF
:10219000F062F06A40F00100F062306840F0807058
:1021A0003060FEF7D9FA0446306880013FF5D8AEBA
:1021B000FEF7D2FA001B02284FF00300F4D901B059
:1021C000F0BD00BFF06A20F00100F062FEF7C4FA33
:1021D0000546FEF7C1FAA842FBD0706B4FF6F871C6
:1021E000A26C884340EAC2007063F06A40F00100CC
:1021F000F062002001B0F0BD411E0020B0EB116F75
:1022000002D00120704700BF4EF21002F023CEF240
:10221000000251604EF62351CEF200010B700721EF
:10222000906011607047000090F88410012901D17E
:10223000022070472421C0F88810026813681168D2
:1022400023F0005321F00101116000214166136069
:102250002022C0F8882080F88410084670470000CB
:1022600070B590F88420012A02D1022070BD00BF11
:102270002422C0F888200268D0F864E0BEF1000F84
:10228000D2F800C0136823F001031360936823F0B1
:10229000606341EA030191601AD0916843F2687E5D
:1022A0009368C0F6000E5B0F43F27075C1F342668F
:1022B000C0F600051EF80340E95C2301B3FBF1F111
:1022C0001EF80630AE5D1B01B3FBF6F302E000BF63
:1022D00001210123A0F86A102021A0F86830C2F87B
:1022E00000C0C0F88810002180F88410084670BD36
:1022F00070B590F88420012A02D1022070BD00BF81
:102300002422C0F888200268D0F864E0BEF1000FF3
:10231000D2F800C0136823F001031360936823F020
:10232000604341EA030191601AD0916843F2687EEC
:102330009368C0F6000E5B0F43F27075C1F34266FE
:10234000C0F600051EF80340E95C2301B3FBF1F180
:102350001EF80630AE5D1B01B3FBF6F302E000BFD2
:1023600001210123A0F86A102021A0F86830C2F8EA
:1023700000C0C0F88810002180F88410084670BDA5
:1023800010B5B0B10446D0F8880028B9002084F810
:102390008400204600F028F82420C4F88800206833
:1023A000016821F001010160204600F0EDFC0128E8
:1023B00002D1012010BD00BFA06A10B1204600F07C
:1023C000B7FB2068416821F490414160816821F0A9
:1023D0002A018160016841F0010101602046BDE8E9
:1023E000104000F015BC0000B0B5B6B06946044618
:1023F00001F10800B821FEF737F844F600412068E3
:10240000C4F20001884201D036B0B0BD6846002455
:10241000019402250095FEF757FC08B1FEF790F8ED
:1024200044F2E040C5F60200816841F40021816079
:10243000816801F4002131913199016841F008016E
:102440000160006831A900F0080031903198032044
:10245000CDE931050820359040F60040C5F6020070
:10246000CDE93344FEF788F836B0B0BD0000000077
:102470002DE9F04381B00446D0F88C00202827D104
:102480000E4600294FF0010058D01746002A55D0BB
:102490001D460020C4F890002221C4F88C10E0668C
:1024A000FEF75AF9A4F85C708046A4F85E70A16843
:1024B00091B1B1F1805F13D0B1F5805F14D1206983
:1024C00060B940F2FF17A4F86070B14600261CE026
:1024D000022001B0BDE8F083206938B9FF2706E08B
:1024E000206918B13F2702E0002700E07F274FF066
:1024F0000009A4F8607008E0384029F8020B0026B3
:10250000B4F85E000138A4F85E00B4F85E0078B15B
:102510002021002220464346009500F091FE48B954
:102520002068002E406AE7D0384006F8010BE7E744
:10253000002000E003202021C4F88C1001B0BDE889
:10254000F0830000000000002DE9F04182B0044655
:10255000D0F8880020281FD10D4600294FF0010037
:102560004ED01746002A4BD098460020C4F8900061
:102570002120C4F88800FEF7EFF8A4F85470A4F8FE
:1025800056700746A168B1F5805F01D1206938B166
:102590002E46002512E000BF022002B0BDE8F08107
:1025A00000260BE035F8020B216800266FF35F2050
:1025B0008862B4F856000138A4F85600B4F8560002
:1025C00080B18021002220463B46CDF8008000F0FB
:1025D00037FEC8B9002EE5D0206816F8011B8162CD
:1025E000E7E700BF4021002220463B46CDF80080AF
:1025F00000F026FE20210028C4F8881018BF032010
:1026000002B0BDE8F08100BF2020C4F8880003209C
:1026100002B0BDE8F0810000FEE70000000000000D
:1026200070B586B044F2E0400025C5F6020005957D
:1026300041F2000400220168C5F6020441F01001D5
:10264000016001684FF4004601F01001009100990B
:10265000016841F00801016000684FF4004100F09A
:102660000800009000982046FEF766F8012001A9B6
:10267000CDE90205204601960495FDF77DFF06B0E1
:1026800070BD00000000000080B540F2800044F6FC
:102690000041C2F20000C4F200010C2201604FF4BC
:1026A000E13141600021C0E902110161C0E9052169
:1026B000C0E90711C0E90911FFF762FE08B1FDF793
:1026C0003FFF40F280000021C2F20000FFF710FE41
:1026D00008B1FDF735FF40F280000021C2F2000092
:1026E000FFF7BEFD08B1FDF72BFF40F28000C2F2FC
:1026F0000000FFF799FD002808BF80BDBDE88040BD
:10270000FDF71EBF00000000FEE700000000000013
:10271000FEE700000000000070470000000000001D
:10272000F0B581B044F22C47C5F6020757F8042CE7
:1027300002F00302032A03D1012001B0F0BD00BF63
:10274000054657F82C0C0C4620F0806047F82C0CFE
:10275000FEF702F8064600BF57F82C0C000105D51D
:10276000FDF7FAFF801B0228F6D964E057F8040C45
:10277000EE6895E80E0020F47C30012C40EA013030
:10278000A2F101016FF35F214FF47E4202EB43227D
:1027900047F8040C92B24FF0FE4302EB01004FF4F5
:1027A000FE012A6901EB064101F4FE0103EB02621E
:1027B000084402F0FE410844F8603868696920F076
:1027C000C00040EA010038603868A96920F02000A4
:1027D00040EA0100386038684FF6F87120F01000C8
:1027E00038603869EA6920EA01004FF4001140EAD4
:1027F000C2003861386808BF4FF4801140F0100003
:10280000002C386008BF4FF4002138680843386056
:1028100057F82C0C40F0806047F82C0CFDF79CFF1B
:10282000044600BF57F82C0C000107D4FDF794FFB5
:10283000001B0328F6D3032001B0F0BD002001B037
:10284000F0BD000000000000F0B581B044F22C475C
:10285000C5F6020757F8042C02F00302032A03D13D
:10286000012001B0F0BD00BF054657F82C0C0C4606
:1028700020F0805047F82C0CFDF76EFF064600BF95
:1028800057F82C0C800005D5FDF766FF801B022849
:10289000F6D964E057F8040CEE6895E80E0020F0D5
:1028A0007C70012C40EA0150A2F101016FF35F211D
:1028B0004FF47E4202EB432247F8040C92B24FF0F1
:1028C000FE4302EB01004FF4FE012A6901EB0641D1
:1028D00001F4FE0103EB0262084402F0FE410844E9
:1028E00078613868696920F4406040EA0100386026
:1028F0003868A96920F4007040EA0100386038683F
:102900004FF6F87120F480703860B869EA6920EAFF
:1029100001004FF0807140EAC200B861386808BF1A
:102920004FF4000140F48070002C386008BF4FF471
:10293000800138680843386057F82C0C40F080500C
:1029400047F82C0CFDF708FF044600BF57F82C0C85
:10295000800007D4FDF700FF001B0328F6D30320F7
:1029600001B0F0BD002001B0F0BD0000000000008B
:102970007047000000000000FDF712BF00000000DB
:10298000B0B59CB044F6180409A84C21C5F6020461
:10299000FDF76AFD04200025CDE90755CDE9055571
:1029A000CDE90355CDE90155FEF706F840F22C407C
:1029B0000095C5F60000016821F001010160006882
:1029C000012100F001000090206861F38F30206049
:1029D000206800F44040009000982068800409D4EA
:1029E000206880045CBF20685FEA804002D42068D1
:1029F0008004F2D50220099001200C9009A84024FF
:102A00000D9400251295FFF747F928B1EFF31080D8
:102A100072B600BFFEE700BF3F200121CDE90105EE
:102A200001A8CDE90355CDE90554CDE90755FEF7D9
:102A3000EBFE28B1EFF3108072B600BFFEE700BFD7
:102A40001CB0B0BD000000004EF6105042F2000C69
:102A5000CEF20000C5F2002C816F41F47001816755
:102A6000016841F010010160DCF8000000F00F0087
:102A7000062806D8DCF80000072161F30300CCF833
:102A8000000044F200414EF67F52C5F60201CEF638
:102A9000F622086840F001000860002008610B6819
:102AA0001A400A60DCF80020120706D5DCF8002086
:102AB000072363F30302CCF8002040F20022886170
:102AC000C861C0F2022208628A620022C0F2FF12CC
:102AD000CA6240F28022C0F201120A6348638A632C
:102AE000C8630A6448640A6822F480220A6008669F
:102AF000E421C5F600010A6842F480420A6041F20E
:102B00000001C5F600410968B0EB517F05D148F2DC
:102B100008100121C5F20010016044F2000043F2E8
:102B2000D201C5F2002001607047000000000000E3
:102B3000816ACA070CD18A0715D44A071ED40A072E
:102B400027D4CA0630D48A0639D44A0655D541E07E
:102B50000268D0F82CC0536823F4003343EA0C0316
:102B600053608A07E9D50268D0F830C0536823F46F
:102B7000803343EA0C0353604A07E0D50268D0F87B
:102B800034C0536823F4802343EA0C0353600A07DC
:102B9000D7D50268D0F838C0536823F4004343EA1D
:102BA0000C035360CA06CED50268D0F83CC09368C7
:102BB00023F4805343EA0C0393608A06C5D5026868
:102BC000D0F840C0936823F4005343EA0C039360A9
:102BD0004A0612D50268D0F844C0BCF5801F53687D
:102BE00023F4801343EA0C03536006D1536823F4A3
:102BF000C00C836C43EA0C035360090658BF70474E
:102C00000168C06C4A6822F4002210434860704793
:102C1000B0B582B004460020C4F89000FDF79CFDDA
:102C2000216805460A68120737D54FF400110022C3
:102C30006FF07E40009020462B4600F001FB58B319
:102C4000206850E8000F216820F0800041E8000271
:102C5000F2B1206850E8000F216820F0800041E8C0
:102C60000002002A1FBF206850E8000F216820F0F2
:102C700080001CBF41E80002002A09D0206850E80B
:102C8000000F216820F0800041E80002002AD7D11F
:102C90002020C4F8880062E021680868400765D5F4
:102CA0004FF4800100226FF07E40009020462B46BA
:102CB00000F0C6FA002859D0206850E8000F2168BB
:102CC00020F4907041E80002F2B1206850E8000F53
:102CD000216820F4907041E80002002A1FBF20689C
:102CE00050E8000F216820F490701CBF41E80002FA
:102CF000002A09D0206850E8000F216820F4907065
:102D000041E80002002AD7D1206850E8020F21686C
:102D100020F0010041E80202F2B1206850E8020F01
:102D2000216820F0010041E80202002A1FBF20684C
:102D300050E8020F216820F001001CBF41E80202A8
:102D4000002A09D0206850E8020F216820F0010015
:102D500041E80202002AD7D12020C4F88C000320C9
:102D6000002184F8841002B0B0BD00BF2020C4F858
:102D70008800C4F88C000020E0662067002184F8F9
:102D8000841002B0B0BD0000F0B583B00446006806
:102D900046F6F31640F6004E22696569D4E902133F
:102DA0000A43E7690168CCF6FF762A4331401143B4
:102DB000C5F6000E394301604168704521F4405169
:102DC00044F2544C41EA03014160A2694FF2FF43CF
:102DD0001CBF216A0A438168C1F2FF131940C5F67E
:102DE000020C1143816047F2FF72C16AC4F2000213
:102DF00021F00F01656A90424FF0800341EA05011E
:102E0000C16221DD40F6FF71C4F2010188422FDD6D
:102E1000704500F0FB8041F20041C4F2010188429C
:102E200005D041F20001C4F20101884247D1DCF82B
:102E30000010C1F3C202062A80F0F08043F2347120
:102E4000C0F6000139E000BF44F6FF31C4F20001D2
:102E500088421BDC44F20041C4F20001884221D0C8
:102E600044F60001C4F2000188421BD027E000BFF5
:102E700047F60001C4F20001884213D047F6004132
:102E8000C4F2000188420DD019E000BF44F60041B1
:102E9000C4F20001884205D045F20001C4F20001ED
:102EA00088420CD1DCF8001001F00702062A80F0FD
:102EB000B58043F23A71C0F600018B181B7870455B
:102EC00040F60010C0F23D0000F0B080B7F5004FB2
:102ED00040F04E80402B4FF0010100F2A281DFE86C
:102EE00013F041001D01A001A0012301A001A001D8
:102EF000A0012B01A001A001A001A001A001A0013F
:102F0000A0013301A001A001A001A001A001A00126
:102F1000A001A001A001A001A001A001A001A001A9
:102F2000A0014301A001A001A001A001A001A001F6
:102F3000A001A001A001A001A001A001A001A00189
:102F4000A001A001A001A001A001A001A001A00179
:102F5000A001A001A001A001A001A001A001A00169
:102F6000A0014101FEF7ACFD002840F0DA80E9E065
:102F7000402B4FF0010100F25481DFE813F04100D3
:102F80001301520152011901520152015201210152
:102F900052015201520152015201520152012901C2
:102FA0005201520152015201520152015201520189
:102FB0005201520152015201520152015201390192
:102FC0005201520152015201520152015201520169
:102FD0005201520152015201520152015201520159
:102FE0005201520152015201520152015201520149
:102FF0005201520152015201520152015201370154
:10300000FEF75EFD002840F0D080DFE0DCF8041021
:1030100001F00702062A01D286A14EE780237045FF
:1030200040F60010C0F23D007FF450AF9A1E01211F
:103030001E2A27D8DFE812F02000F5002C00F5004A
:10304000F500F5003400F500F500F500F500F50099
:10305000F500F5003C00F500F500F500F500F50081
:10306000F500F500F500F500F500F500F500F500B8
:10307000F500F500490000BFFDF7E2FCB0B1656A5C
:1030800023E000BF402B40F0CC804FF400401CE018
:103090006846FDF7E9FC01980028F0D106E000BF82
:1030A0006846FDF779FD01980028E8D10021B8E0D5
:1030B0005CF8540C800649F20000C0F2D03004D510
:1030C0005CF8541CC1F3C101C84043F250716268FE
:1030D000C0F6000131F81510B0FBF1F002EB42012F
:1030E00088424FF00101C0F09C801303984200F227
:1030F0009880010E0023000210EB520041F1000104
:10310000FDF73AF94FF60052A0F54071C0F20F02F8
:103110009142C0F08080012183E000BFFEF700FDF6
:1031200080B1656A20E000BF6846FDF79DFC01980C
:103130000028F6D106E000BF6846FDF72DFD019896
:103140000028EED100216CE05CF8540C800649F2B6
:103150000000C0F2D03007D55CF8541CC1F3C101A7
:10316000C84001E04FF4004043F25071C0F6000146
:1031700031F81510B0FBF1F061684A0802EB40002D
:103180004FF6EF72B0FBF1F0A0F11001914207D8B9
:103190004FF6F0710140C0F3420008443BE000BF2D
:1031A00001213EE0FEF7BCFC80B1656A20E000BF73
:1031B0006846FDF759FC01980028F6D106E000BFEB
:1031C0006846FDF7E9FC01980028EED1002128E0CF
:1031D0005CF8540C800649F20000C0F2D03007D5EC
:1031E0005CF8541CC1F3C101C84001E04FF4004039
:1031F00043F250716268C0F6000131F81510B0FB5F
:10320000F1F000EB5200B0FBF2F0A0F110014FF62C
:10321000EF72914204D82168C860002101E000BF2C
:1032200001214FF00110A0660020C4E91D000846EE
:1032300003B0F0BD020408102040000000000000B0
:103240002DE9F041044600680D46C7693940491B25
:10325000B1FA81F14909914229D1DDF81880B8F11C
:10326000000F27D0164618F1010129D1C169294064
:10327000491BB1FA81F14909B14218D1C16929400C
:10328000491BB1FA81F14909B14201BFC169294025
:10329000491BB1FA81F104BF4909B14207D1C169A3
:1032A0002940491BB1FA81F14909B142DED0002021
:1032B000BDE8F081FDF750FA0320BDE8F08100BFC2
:1032C0001F4607E0C0692840401BB0FA80F0400963
:1032D000B042ECD1FDF740FAC01B404500F29680A9
:1032E000206801684907EDD5C169090700F192809E
:1032F000C1690905E6D54FF400610162206850E814
:10330000000F216820F4907041E80002F2B12068BB
:1033100050E8000F216820F4907041E80002002A74
:103320001FBF206850E8000F216820F490701CBF78
:1033300041E80002002A09D0206850E8000F216807
:1033400020F4907041E80002002AD7D14FF6FE70B9
:10335000CEF6FF70216851E8021F2268014042E862
:103360000213DBB1216851E8021F2268014042E8E4
:103370000213002B1FBF216851E8021F2268014081
:103380001CBF42E80213002B08D0216851E8021F3D
:103390002268014042E80213002BDBD1E06E0128D5
:1033A00027D1206850E8000F216820F0100041E884
:1033B0000002F2B1206850E8000F216820F01000F0
:1033C00041E80002002A1FBF206850E8000F216872
:1033D00020F010001CBF41E80002002A09D020683C
:1033E00050E8000F216820F0100041E80002002A98
:1033F000D7D12020C4F88C000021E1666167C4F8B1
:103400009000032084F88410BDE8F0810320BDE81B
:10341000F08100BF08210162206850E8000F216898
:1034200020F4907041E80002F2B1206850E8000FEB
:10343000216820F4907041E80002002A1FBF206834
:1034400050E8000F216820F490701CBF41E8000292
:10345000002A09D0206850E8000F216820F49070FD
:1034600041E80002002AD7D14FF6FE70CEF6FF7079
:10347000216851E8021F2268014042E80213DBB1D3
:10348000216851E8021F2268014042E80213002B24
:103490001FBF216851E8021F226801401CBF42E89B
:1034A0000213002B08D0216851E8021F2268014056
:1034B00042E80213002BDBD1E06E012827D12068FF
:1034C00050E8000F216820F0100041E80002F2B13E
:1034D000206850E8000F216820F0100041E8000249
:1034E000002A1FBF206850E8000F216820F010005C
:1034F0001CBF41E80002002A09D0206850E8000FF4
:10350000216820F0100041E80002002AD7D12020D5
:10351000C4F88C000020E06660670821C4F89010B1
:1035200084F884000120BDE8F08100000000000064
:10353000FEE700000000000084B0002444F20045D3
:10354000CFF6FF74C5F6020501200090FDF7C4F91F
:103550000020019048F21F70029040F20110039089
:103560006846FDF789F90420FDF7C6F92046296869
:10357000090444BF29685FEA014137D52968090475
:1035800044BF29685FEA014130D52968090444BF76
:1035900029685FEA014129D52968090444BF2968DF
:1035A0005FEA014122D52968090444BF29685FEA1E
:1035B00001411BD52968090444BF29685FEA01411C
:1035C00014D52968090444BF29685FEA01410DD573
:1035D0002968090444BF29685FEA014106D5103013
:1035E000C5D1EFF3108072B6FEE700BFFDF7E8F833
:1035F000FFF7C6F9D5F8E00040F00070C5F8E0002C
:10360000D5F8E00000F00070009000980020FDF771
:10361000ABF800200021FDF7B7F8286800045CBF74
:1036200028685FEA004037D4286800045CBF286837
:103630005FEA004030D4286800045CBF28685FEA75
:10364000004029D4286800045CBF28685FEA004075
:1036500022D4286800045CBF28685FEA00401BD4BD
:10366000286800045CBF28685FEA004014D428681A
:1036700000045CBF28685FEA00400DD4286800049D
:103680005CBF28685FEA004006D41034C5D1EFF370
:10369000108072B6FEE700BF41F20004C5F60204D6
:1036A000FEF7BEFFFEF7F0FF40F2800540F2141671
:1036B00040F21007C2F20005C2F20006C2F2000793
:1036C0004FF4004101222046FDF736F84FF47A709E
:1036D000FCF73EFF4FF4004100222046FDF72CF896
:1036E0004FF47A70FCF734FF0922642328463146F0
:1036F000FEF7BEFE30780128E2D14FF400412046AB
:10370000FDF712F80922642328463946FEF71CFF0C
:103710004FF47A70FCF71CFFD2E7F1EE100A4FF677
:10372000FF71C0F2C03120EA010040F04070E1EECC
:10373000100A7047010408102040000408102040BF
:103740000000000001020304010203040607080947
:10375000010002000400060008000A000C0010002E
:10376000200040008000000101010103070100006A
:103770000804020408010101983700080000002035
:1037800020000000D4020008B83700082000002004
:1037900008070000F002000801000000100000000F
:1037A0000090D0030090D00301020304050607082F
:0837B000090000000000000008
:040000050800029954
:00000001FF
