:020000040800F2
:1000000000000824410C0008110A0008170A000823
:100010001D0A0008230A0008290A00080000000041
:100020000000000000000000000000002F0A00088F
:100030003D0A0008000000004B0A0008590A0008A9
:10004000910C0008910C0008910C0008910C00081C
:10005000910C0008910C0008910C0008910C00080C
:10006000910C0008910C0008910C0008910C0008FC
:10007000910C0008910C0008910C0008910C0008EC
:10008000910C0008910C0008910C0008910C0008DC
:10009000910C0008910C0008910C0008910C0008CC
:1000A000910C0008910C0008910C0008910C0008BC
:1000B000910C0008910C0008910C0008910C0008AC
:1000C000910C0008910C0008910C0008910C00089C
:1000D000910C0008910C0008910C0008910C00088C
:1000E000910C0008910C000800000000910C000821
:1000F000910C0008910C0008910C0008910C00086C
:10010000910C0008910C0008910C0008910C00085B
:10011000910C0008650A0008910C0008910C000879
:10012000910C0008910C0008910C0008910C00083B
:10013000910C0008910C0008910C0008910C00082B
:10014000910C0008910C0008000000000000000065
:10015000910C0008910C0008910C0008910C00080B
:10016000910C0008910C0008910C0008910C0008FB
:10017000910C0008910C0008910C00080000000090
:10018000910C0008910C0008910C0008910C0008DB
:10019000910C0008910C0008910C0008910C0008CB
:1001A000910C0008910C0008910C0008910C0008BB
:1001B000910C0008910C0008910C0008910C0008AB
:1001C000910C0008910C0008910C0008910C00089B
:1001D000910C0008910C0008910C0008910C00088B
:1001E000910C0008910C0008910C0008910C00087B
:1001F000910C0008910C0008910C0008910C00086B
:10020000910C0008910C0008910C0008910C00085A
:10021000910C0008910C0008910C0008910C00084A
:10022000910C0008910C0008910C000800000000DF
:10023000910C0008910C0008910C0008910C00082A
:10024000910C0008910C0008910C0008910C00081A
:10025000910C0008910C0008910C0008910C00080A
:10026000910C0008910C0008910C0008910C0008FA
:10027000910C0008910C0008910C0008910C0008EA
:10028000910C0008910C0008910C0008000000007F
:08029000910C0008910C00081C
:1002980010B5054C237833B9044B13B10448AFF3B8
:1002A80000800123237010BD2400002400000000FA
:1002B8008468000808B5034B1BB103490348AFF332
:1002C800008008BD000000002800002484680008A1
:1002D80053B94AB9002908BF00281CBF4FF0FF31A5
:1002E8004FF0FF3000F070B9ADF1080C6DE904CEA5
:1002F80000F006F8DDF804E0DDE9022304B07047F9
:100308002DE9F047089E0D4604460F46002B4AD1BA
:100318008A42944665D9B2FA82F343B102FA03FCE1
:10032800C3F120029F4020FA02F217439C404FEA93
:100338001C4E1FFA8CF5B7FBFEF1220C0EFB117751
:1003480042EA074201FB05F090420AD91CEB02027F
:1003580001F1FF3780F01C81904240F21981023987
:100368006244121AA4B2B2FBFEF00EFB102244EA59
:10037800024400FB05F5A5420AD91CEB040400F170
:10038800FF3280F00781A54240F2048164440238BC
:1003980040EA0140641B00211EB1DC400023C6E98D
:1003A8000043BDE8F0878B4208D9002E00F0ED80AD
:1003B8000021C6E900050846BDE8F087B3FA83F1D5
:1003C800002949D1AB4202D3824200F2F880841A54
:1003D80065EB030201201746002EE2D0C6E900476C
:1003E800DFE702B9FFDEB2FA82F3002B40F090801B
:1003F8008A1A4FEA1C471FFA8CFE0121B2FBF7F557
:1004080007FB1520220C42EA00420EFB05F0904241
:1004180008D91CEB020205F1FF3802D2904200F223
:10042800CB804546121AA4B2B2FBF7F007FB1022A4
:1004380044EA02440EFB00FEA64508D91CEB04045E
:1004480000F1FF3202D2A64500F2BB801046A4EBB1
:100458000E0440EA05409FE7C1F120078B4022FACD
:1004680007FC4CEA030C05FA01F420FA07F3FD40F7
:100478004FEA1C492343B5FBF9F81FFA8CFE09FB28
:1004880018551C0C44EA054408FB0EF5A54202FA6F
:1004980001F200FA01F00BD91CEB040408F1FF3A51
:1004A80080F08880A54240F28580A8F10208644463
:1004B800641B9DB2B4FBF9F309FB134445EA0444F9
:1004C80003FB0EFEA64508D91CEB040403F1FF3517
:1004D8006CD2A6456AD9023B644443EA0843A3FBAD
:1004E8000295A4EB0E04AC42C846AE4656D353D090
:1004F80056B1B0EB080264EB0E0404FA07F7CA40E1
:10050800CC401743C6E9007418460021BDE8F087BF
:10051800C3F1200102FA03FC20FA01F225FA01F1E5
:100528009D402A434FEA1C471FFA8CFEB1FBF7F0A7
:1005380007FB1015110C41EA054100FB0EF58D4231
:1005480004FA03F408D91CEB010100F1FF382FD29B
:100558008D422DD902386144491B92B2B1FBF7F59F
:1005680007FB151142EA014205FB0EF1914208D939
:100578001CEB020205F1FF3816D2914214D9023D54
:100588006244521A45EA004138E73146304608E7E6
:100598003946E6E61046FBE64845A9D2B9EB02081B
:1005A80065EB0C0E013BA3E74546EAE72B4694E7CB
:1005B8004046D1E7D0467BE7023D624432E7084631
:1005C8000AE76444023842E7704700BF80B400AFCE
:1005D8003D4BD3F888303C4A43F47003C2F8883066
:1005E800394B1B69384A43F010031361374B1B68BA
:1005F80003F00F03062B07D8344B1B6823F00F03B7
:10060800324A43F007031360314B1B68304A43F00A
:10061800010313602E4B00221A612D4B1A682C49D6
:100628002C4B13400B60294B1B6803F00803002B6D
:1006380007D0264B1B6823F00F03244A43F0070317
:100648001360234B00229A61214B0022DA61204B70
:1006580000221A621E4B204A9A621D4B1F4ADA6218
:100668001B4B1F4A1A631A4B00225A63184B1C4A29
:100678009A63174B0022DA63154B194A1A64144B14
:1006880000225A64124B1B68114A23F4802313601A
:100698000F4B00221A66134B5B6A124A43F48043DD
:1006A8005362114B1A68114B1340B3F1005F02D229
:1006B8000F4B01221A600F4B43F2D2021A6000BF9F
:1006C800BD465DF8047B704700ED00E00020005255
:1006D800004402587FEDF6EA000202020000FF0122
:1006E80080020101C00000580010005C0000FFFFFC
:1006F800088100510040005280B588B000AF07F172
:100708000C0300221A605A609A60DA601A61224B60
:10071800D3F8E030204A43F01003C2F8E0301E4B13
:10072800D3F8E03003F01003BB60BB681A4BD3F872
:10073800E030194A43F00403C2F8E030164BD3F80E
:10074800E03003F004037B607B68134BD3F8E030A0
:10075800114A43F00803C2F8E0300F4BD3F8E030F9
:1007680003F008033B603B6800223C210B4801F082
:10077800EFFB3C23FB6001233B6100237B610023EB
:10078800BB6107F10C031946044801F031FA00BFB8
:100798002037BD4680BD00BF0044025800100258F3
:1007A80080B582B000AF4FF6FF737B6000BF2F4B60
:1007B8001B6803F40043002B04D07B685A1E7A6040
:1007C800002BF4DC7B68002B01DA00F0FDF800F068
:1007D8005DFA00F0CDF800F051F8244BD3F8E03082
:1007E800224A43F00073C2F8E030204BD3F8E030DF
:1007F80003F000733B603B68002001F0DDFB002143
:10080800002001F0F3FB4FF6FF737B6000BF174B2E
:100818001B6803F40043002B04D17B685A1E7A60DE
:10082800002BF4DC7B68002B01DA00F0CDF8FFF731
:1008380063FF00F01DF904210D4801F0A2FB082117
:100848000B4801F09EFB1021094801F09AFB20217A
:10085800074801F096FB642313220649064804F072
:1008680095FA4FF47A7000F0A3FAE4E700440258CE
:1008780000100258080000244000002480B59CB0F5
:1008880000AF07F124034C220021184605F0CAFFE7
:100898003B1D20220021184605F0C4FF042001F06A
:1008A800B9FB00233B60304BDB6A2F4A23F001037E
:1008B800D3622D4BDB6A03F001033B602B4B9B6932
:1008C8002A4A43F440439361284B9B6903F440430D
:1008D8003B603B6800BF254B9B6903F40053B3F5AD
:1008E800005FF8D101237B624FF48033BB6202239F
:1008F800BB640223FB6402233B6538237B65022328
:10090800BB650223FB6502233B660C237B66002341
:10091800BB660023FB6607F12403184601F0D4FBED
:100928000346002B01D000F04FF83F237B600323E0
:10093800BB600023FB6008233B6140237B614023AD
:10094800BB614FF48063FB6140233B623B1D022186
:10095800184602F013F80346002B01D000F034F8D3
:1009680000BF7037BD4680BD0004005800480258DB
:1009780080B584B000AF3B4600221A605A609A6086
:10098800DA6000F055FB01233B7000237B700023E5
:100998007B601F233B7287237B720023BB7200237B
:1009A800FB7201233B7301237B730023BB7300237A
:1009B800FB733B46184600F073FB042000F050FB25
:1009C80000BF1037BD4680BD80B400AF72B600BF0F
:1009D800FEE7000080B483B000AF0A4BD3F8F430D0
:1009E800084A43F00203C2F8F430064BD3F8F43057
:1009F80003F002037B607B6800BF0C37BD465DF8DF
:100A0800047B70470044025880B400AFFEE780B40E
:100A180000AFFEE780B400AFFEE780B400AFFEE7AA
:100A280080B400AFFEE780B400AF00BFBD465DF8FC
:100A3800047B704780B400AF00BFBD465DF8047BFF
:100A4800704780B400AF00BFBD465DF8047B7047B7
:100A580080B500AF00F08CF900BF80BD80B500AF55
:100A6800024804F021FA00BF80BD00BF4000002406
:100A780080B500AF224B234A1A60214B4FF4E13274
:100A88005A601F4B00229A601D4B0022DA601C4BF3
:100A980000221A611A4B0C225A61194B00229A61E2
:100AA800174B0022DA61164B00221A62144B0022FF
:100AB8005A62134B00229A62114804F017F9034650
:100AC800002B01D0FFF780FF00210D4805F0E0FD65
:100AD8000346002B01D0FFF777FF0021084805F0F7
:100AE80015FE0346002B01D0FFF76EFF044805F002
:100AF80096FD0346002B01D0FFF766FF00BF80BDBF
:100B0800400000240050004080B5BCB000AF7860C1
:100B180007F1DC0300221A605A609A60DA601A61F1
:100B280007F11803C0220021184605F07BFE7B68F8
:100B38001B683D4A934272D14FF002024FF0000306
:100B4800C7E906230023C7F8903007F118031846B1
:100B580002F0A0FA0346002B01D0FFF735FF334B14
:100B6800D3F8E830314A43F48013C2F8E8302F4B09
:100B7800D3F8E83003F480137B617B692B4BD3F8FF
:100B8800E0302A4A43F00403C2F8E030274BD3F898
:100B9800E03003F004033B613B69244BD3F8E030B9
:100BA800224A43F00803C2F8E030204BD3F8E03083
:100BB80003F00803FB60FB684FF48053C7F8DC3090
:100BC8000223C7F8E0300023C7F8E4300023C7F851
:100BD800E8300823C7F8EC3007F1DC03194614485D
:100BE80001F006F80423C7F8DC300223C7F8E03028
:100BF8000023C7F8E4300023C7F8E8300823C7F813
:100C0800EC3007F1DC0319460A4800F0F1FF002236
:100C18000021352000F0D7F9352000F0EEF900BFAB
:100C2800F037BD4680BD00BF005000400044025868
:100C380000080258000C0258DFF834D0FFF7C6FC51
:100C48000C480D490D4A002302E0D458C45004331F
:100C5800C4188C42F9D30A4A0A4C002301E01360F5
:100C68000432A242FBD305F0E5FDFFF799FD70477A
:100C7800000008240000002424000024E468000880
:100C880024000024D8000024FEE7000080B582B0CC
:100C980000AF032000F08CF902F026F80246154B4D
:100CA8009B691B0A03F00F031349CB5C03F01F0376
:100CB80022FA03F37B600F4B9B6903F00F030E4A84
:100CC800D35C03F01F037A6822FA03F30B4A13601C
:100CD8000B4A7B6813600F2000F014F80346002BC2
:100CE80001D0012302E0FFF775FE002318460837FC
:100CF800BD4680BD004402589C68000804000024DA
:100D08000000002480B582B000AF7860154B1B78D6
:100D1800002B01D1012321E0134B1A68114B1B78DA
:100D280019464FF47A73B3FBF1F3B2FBF3F31846A9
:100D380000F071F90346002B01D001230EE07B6817
:100D48000F2B0AD8002279684FF0FF3000F03BF9EA
:100D5800064A7B681360002300E001231846083721
:100D6800BD4680BD20000024000000241C00002493
:100D780080B400AF064B1B781A46064B1B68134419
:100D8800044A136000BFBD465DF8047B704700BF8E
:100D980020000024D400002480B400AF034B1B685B
:100DA8001846BD465DF8047B704700BFD400002498
:100DB80080B584B000AF7860FFF7EEFFB8607B685D
:100DC800FB60FB68B3F1FF3F05D00A4B1B781A465E
:100DD800FB681344FB6000BFFFF7DEFF0246BB68F9
:100DE800D31AFA689A42F7D800BF00BF1037BD4639
:100DF80080BD00BF2000002480B400AF034B1B68F7
:100E08001B0C1846BD465DF8047B70470010005C5B
:100E180080B485B000AF78607B6803F00703FB609F
:100E28000B4BDB68BB60BA684FF6FF031340BB602F
:100E3800FB681A02BB681A43064B1343BB60044A9B
:100E4800BB68D36000BF1437BD465DF8047B7047AC
:100E580000ED00E00000FA0580B400AF044BDB6849
:100E68001B0A03F007031846BD465DF8047B70476C
:100E780000ED00E080B483B000AF0346FB80B7F913
:100E88000630002B0BDBFB8803F01F020749B7F97C
:100E980006305B09012000FA02F241F8232000BF66
:100EA8000C37BD465DF8047B704700BF00E100E0E9
:100EB80080B483B000AF03463960FB80B7F90630D1
:100EC800002B0ADB3B68DAB20C49B7F9063012018D
:100ED800D2B20B4483F800230AE03B68DAB208492F
:100EE800FB8803F00F03043B1201D2B20B441A76BD
:100EF80000BF0C37BD465DF8047B704700E100E099
:100F080000ED00E080B489B000AFF860B9607A60A5
:100F1800FB6803F00703FB61FB69C3F10703042BBC
:100F280028BF0423BB61FB690433062B02D9FB6984
:100F3800033B00E000237B614FF0FF32BB6902FAFC
:100F480003F3DA43BB681A407B699A404FF0FF31DC
:100F58007B6901FA03F3D9437B680B4013431846B6
:100F68002437BD465DF8047B7047000080B582B029
:100F780000AF78607B68013BB3F1807F01D3012328
:100F88000FE00A4A7B68013B53600F214FF0FF30A6
:100F9800FFF78EFF054B00229A60044B07221A6068
:100FA800002318460837BD4680BD00BF10E000E0AA
:100FB80080B582B000AF78607868FFF729FF00BF7E
:100FC8000837BD4680BD80B586B000AF0346B9601E
:100FD8007A60FB81FFF740FF78617A68B9687869C1
:100FE800FFF790FF0246B7F90E3011461846FFF793
:100FF8005FFF00BF1837BD4680BD80B582B000AF27
:101008000346FB80B7F906301846FFF733FF00BFE9
:101018000837BD4680BD80B582B000AF786078687B
:10102800FFF7A4FF034618460837BD4680BD0000F9
:1010380080B400AFBFF35F8F00BF074B5B6A064AFF
:1010480023F480335362054B00225A6000BFBD462B
:101058005DF8047B704700BF00ED00E090ED00E014
:1010680080B483B000AF78600B4A7B6843F001031B
:1010780053600A4B5B6A094A43F480335362BFF3F7
:101088004F8F00BFBFF36F8F00BF00BF0C37BD4647
:101098005DF8047B704700BF90ED00E000ED00E0D4
:1010A80080B483B000AF78607B685A781D4B9A6033
:1010B8007B681B78002B29D01A4A7B685B68D36051
:1010C8007B681B7B1A077B68DB7A1B061A437B68E5
:1010D8009B7ADB041A437B685B7B9B041A437B681F
:1010E8009B7B5B041A437B68DB7B1B041A437B688E
:1010F8005B7A1B021A437B681B7A5B0013437A688E
:1011080012781146074A0B43136105E0054B00228C
:10111800DA60044B00221A6100BF0C37BD465DF847
:10112800047B704790ED00E080B586B000AF786032
:10113800FFF732FE38617B68002B01D10123DCE226
:101148007B6893F83530DBB2022B08D07B688022AD
:101158005A657B68002283F834200123CDE27B683E
:101168001B68764A93424AD07B681B68744A93424C
:1011780045D07B681B68734A934240D07B681B68E4
:10118800714A93423BD07B681B68704A934236D0C1
:101198007B681B686E4A934231D07B681B686D4A36
:1011A80093422CD07B681B686B4A934227D07B689C
:1011B8001B686A4A934222D07B681B68684A93423C
:1011C8001DD07B681B68674A934218D07B681B68F0
:1011D800654A934213D07B681B68644A93420ED0D9
:1011E8007B681B68624A934209D07B681B68614A26
:1011F800934204D07B681B685F4A934201D1012364
:1012080000E00023002B13D07B681B681A687B68FA
:101218001B6822F01E021A607B681B685A697B688B
:101228001B6822F080025A617B681B687B610AE0B8
:101238007B681B681A687B681B6822F00E021A60BC
:101248007B681B687B617B681B683C4A934272D051
:101258007B681B683A4A93426DD07B681B68394AA1
:10126800934268D07B681B68374A934263D07B6897
:101278001B68364A93425ED07B681B68344A9342A7
:1012880059D07B681B68334A934254D07B681B68EB
:10129800314A93424FD07B681B68304A93424AD008
:1012A8007B681B682E4A934245D07B681B682D4A91
:1012B800934240D07B681B682B4A93423BD07B68A3
:1012C8001B682A4A934236D07B681B68284A934297
:1012D80031D07B681B68274A93422CD07B681B68F7
:1012E800254A934227D07B681B68244A934222D020
:1012F8007B681B68224A93421DD07B681B68214A81
:10130800934218D07B681B681F4A934213D07B68AE
:101318001B681E4A93420ED07B681B681C4A934286
:1013280009D07B681B681B4A934204D07B681B6802
:10133800194A934232D1012331E000BF1000024024
:10134800280002404000024058000240700002405D
:1013580088000240A0000240B80002401004024089
:10136800280402404004024058040240700402402D
:1013780088040240A0040240B804024008540258FD
:101388001C540258305402584454025858540258B5
:101398006C54025880540258945402580023002B6D
:1013A80007D07B681B6E1A687B681B6E22F48072FC
:1013B8001A607B681B686D4A93424AD07B681B6839
:1013C8006B4A934245D07B681B686A4A934240D077
:1013D8007B681B68684A93423BD07B681B68674AF6
:1013E800934236D07B681B68654A934231D07B684C
:1013F8001B68644A93422CD07B681B68624A9342FC
:1014080027D07B681B68614A934222D07B681B689F
:101418005F4A93421DD07B681B685E4A934218D08E
:101428007B681B685C4A934213D07B681B685B4AE5
:1014380093420ED07B681B68594A934209D07B6857
:101448001B68584A934204D07B681B68564A9342EB
:1014580008D17B681B681A687B681B6822F0010248
:101468001A6007E07B681B681A687B681B6822F0B3
:1014780001021A6013E0FFF78FFC02463B69D31A9A
:10148800052B0CD97B6820225A657B68032283F8D8
:1014980035207B68002283F8342001232DE17B6905
:1014A8001B6803F00103002BE5D17B681B682F4AFA
:1014B80093424AD07B681B682D4A934245D07B688B
:1014C8001B682C4A934240D07B681B682A4A934287
:1014D8003BD07B681B68294A934236D07B681B68DF
:1014E800274A934231D07B681B68264A93422CD006
:1014F8007B681B68244A934227D07B681B68234A71
:10150800934222D07B681B68214A93421DD07B6896
:101518001B68204A934218D07B681B681E4A934276
:1015280013D07B681B681D4A93420ED07B681B68EA
:101538001B4A934209D07B681B681A4A934204D01D
:101548007B681B68184A934201D1012300E00023FD
:10155800002B2BD07B689B6DBB607B68DB6D03F039
:101568001F033F229A40BB689A602AE0100002409D
:10157800280002404000024058000240700002402B
:1015880088000240A0000240B80002401004024057
:1015980028040240400402405804024070040240FB
:1015A80088040240A0040240B80402407B689B6D96
:1015B800FB607B68DB6D03F01F0301229A40FB6828
:1015C8005A607B681B684F4A934272D07B681B68DD
:1015D8004D4A93426DD07B681B684C4A934268D051
:1015E8007B681B684A4A934263D07B681B68494AF8
:1015F80093425ED07B681B68474A934259D07B6808
:101608001B68464A934254D07B681B68444A9342FD
:101618004FD07B681B68434A93424AD07B681B685B
:10162800414A934245D07B681B68404A934240D068
:101638007B681B683E4A93423BD07B681B683D4AE7
:10164800934236D07B681B683B4A934231D07B6813
:101658001B683A4A93422CD07B681B68384A9342ED
:1016680027D07B681B68374A934222D07B681B6867
:10167800354A93421DD07B681B68344A934218D080
:101688007B681B68324A934213D07B681B68314AD7
:1016980093420ED07B681B682F4A934209D07B681F
:1016A8001B682E4A934204D07B681B682C4A9342DD
:1016B80001D1012300E00023002B15D07B685B6E6D
:1016C8007A68926E5A607B68DB6E002B0CD07B6860
:1016D800DB6E1A687B68DB6E22F480721A607B68A6
:1016E8001B6F7A68526F5A607B68012283F8352035
:1016F8007B68002283F83420002318461837BD463B
:1017080080BD00BF10000240280002404000024097
:10171800580002407000024088000240A0000240C9
:10172800B80002401004024028040240400402406D
:10173800580402407004024088040240A004024099
:10174800B8040240085402581C5402583054025835
:1017580044540258585402586C5402588054025841
:101768009454025880B584B000AF78607B68002B31
:1017780001D1012337E27B6893F83530DBB2022BC5
:1017880004D07B6880225A6501232CE27B681B68A1
:101798005C4A93424AD07B681B685B4A934245D0B7
:1017A8007B681B68594A934240D07B681B68584A3B
:1017B80093423BD07B681B68564A934236D07B687D
:1017C8001B68554A934231D07B681B68534A934241
:1017D8002CD07B681B68524A934227D07B681B68D1
:1017E800504A934222D07B681B684F4A93421DD0CF
:1017F8007B681B684D4A934218D07B681B684C4A2B
:10180800934213D07B681B684A4A93420ED07B6888
:101818001B68494A934209D07B681B68474A934230
:1018280004D07B681B68464A934201D1012300E03B
:101838000023002B00F086807B68042283F8352083
:101848007B681B682F4A93424AD07B681B682E4AE4
:10185800934245D07B681B682C4A934240D07B68F2
:101868001B682B4A93423BD07B681B68294A9342EA
:1018780036D07B681B68284A934231D07B681B6846
:10188800264A93422CD07B681B68254A934227D06E
:101898007B681B68234A934222D07B681B68224AD4
:1018A80093421DD07B681B68204A934218D07B68FE
:1018B8001B681F4A934213D07B681B681D4A9342DA
:1018C8000ED07B681B681C4A934209D07B681B6852
:1018D8001A4A934204D07B681B68194A934208D17C
:1018E8007B681B681A687B681B6822F001021A6013
:1018F80078E17B681B681A687B681B6822F0010224
:101908001A606FE1100002402800024040000240C7
:10191800580002407000024088000240A0000240C7
:10192800B80002401004024028040240400402406B
:10193800580402407004024088040240A004024097
:10194800B80402407B681B681A687B681B6822F031
:101958000E021A607B681B686C4A93424AD07B6807
:101968001B686B4A934245D07B681B68694A93425F
:1019780040D07B681B68684A93423BD07B681B68F1
:10198800664A934236D07B681B68654A934231D0D9
:101998007B681B68634A93422CD07B681B68624A49
:1019A800934227D07B681B68604A934222D07B68A9
:1019B8001B685F4A93421DD07B681B685D4A93424F
:1019C80018D07B681B685C4A934213D07B681B68FD
:1019D8005A4A93420ED07B681B68594A934209D0F1
:1019E8007B681B68574A934204D07B681B68564A39
:1019F800934208D17B681B681A687B681B6822F0D1
:101A080001021A6007E07B681B681A687B681B681C
:101A180022F001021A607B681B683C4A934272D02C
:101A28007B681B683A4A93426DD07B681B68394AC9
:101A3800934268D07B681B68374A934263D07B68BF
:101A48001B68364A93425ED07B681B68344A9342CF
:101A580059D07B681B68334A934254D07B681B6813
:101A6800314A93424FD07B681B68304A93424AD030
:101A78007B681B682E4A934245D07B681B682D4AB9
:101A8800934240D07B681B682B4A93423BD07B68CB
:101A98001B682A4A934236D07B681B68284A9342BF
:101AA80031D07B681B68274A93422CD07B681B681F
:101AB800254A934227D07B681B68244A934222D048
:101AC8007B681B68224A93421DD07B681B68214AA9
:101AD800934218D07B681B681F4A934213D07B68D7
:101AE8001B681E4A93420ED07B681B681C4A9342AF
:101AF80009D07B681B681B4A934204D07B681B682B
:101B0800194A934232D1012331E000BF100002404C
:101B18002800024040000240580002407000024085
:101B280088000240A0000240B800024010040240B1
:101B38002804024040040240580402407004024055
:101B480088040240A0040240B80402400854025825
:101B58001C540258305402584454025858540258DD
:101B68006C54025880540258945402580023002B95
:101B780028D07B681B6E1A687B681B6E22F4807203
:101B88001A607B689B6DFB607B68DB6D03F01F034D
:101B980001229A40FB685A607B685B6E7A68926E95
:101BA8005A607B68DB6E002B0CD07B68DB6E1A6892
:101BB8007B68DB6E22F480721A607B681B6F7A6820
:101BC800526F5A607B68012283F835207B680022B7
:101BD80083F834207B681B6D002B03D07B681B6D5A
:101BE80078689847002318461037BD4680BD00BF67
:101BF80080B489B000AF786039600023FB61894BFD
:101C08007B6194E13B681A680121FB6901FA03F3DF
:101C180013403B613B69002B00F086813B685B68A1
:101C280003F00303012B05D03B685B6803F0030353
:101C3800022B30D17B689B68BB61FB695B00032288
:101C480002FA03F3DB43BA691340BB613B68DA6805
:101C5800FB695B0002FA03F3BA691343BB617B6853
:101C6800BA699A607B685B68BB610122FB6902FA0A
:101C780003F3DB43BA691340BB613B685B681B092C
:101C880003F00102FB6902FA03F3BA691343BB616B
:101C98007B68BA695A603B685B6803F00303032BEF
:101CA80017D07B68DB68BB61FB695B00032202FA23
:101CB80003F3DB43BA691340BB613B689A68FB696D
:101CC8005B0002FA03F3BA691343BB617B68BA6924
:101CD800DA603B685B6803F00303022B23D1FB69DE
:101CE800DA087B68083253F82230BB61FB6903F0DD
:101CF80007039B000F2202FA03F3DB43BA69134080
:101D0800BB613B681A69FB6903F007039B0002FA91
:101D180003F3BA691343BB61FB69DA087B680832CD
:101D2800B96943F822107B681B68BB61FB695B00DB
:101D3800032202FA03F3DB43BA691340BB613B6831
:101D48005B6803F00302FB695B0002FA03F3BA69FC
:101D58001343BB617B68BA691A603B685B6803F42C
:101D68004033002B00F0E0802F4BD3F8F4302E4A9C
:101D780043F00203C2F8F4302B4BD3F8F43003F0ED
:101D88000203FB60FB68294AFB699B08023352F88F
:101D98002330BB61FB6903F003039B000F2202FAA7
:101DA80003F3DB43BA691340BB617B68204A934263
:101DB80052D07B681F4A934231D07B681E4A9342B7
:101DC8002BD07B681D4A934225D07B681C4A9342DE
:101DD8001FD07B681B4A934219D07B681A4A9342EA
:101DE80013D07B68194A93420DD07B68184A9342F6
:101DF80007D07B68174A934201D109232DE00A23B3
:101E08002BE0082329E0072327E0062325E0052304
:101E180023E0042321E003231FE002231DE0012324
:101E28001BE000BF8000005800440258000400581E
:101E3800000002580004025800080258000C02581A
:101E4800001002580014025800180258001C0258CA
:101E580000200258002402580023FA6902F0030205
:101E680092009340BA691343BB613849FB699B08E8
:101E78000233BA6941F823204FF0B0431B68BB61B5
:101E88003B69DB43BA691340BB613B685B6803F499
:101E98008013002B03D0BA693B691343BB614FF031
:101EA800B042BB6913604FF0B0435B68BB613B69EC
:101EB800DB43BA691340BB613B685B6803F40013FA
:101EC800002B03D0BA693B691343BB614FF0B042A2
:101ED800BB6953607B695B68BB613B69DB43BA697B
:101EE8001340BB613B685B6803F40033002B03D0ED
:101EF800BA693B691343BB617B69BA695A607B69FC
:101F08001B68BB613B69DB43BA691340BB613B6833
:101F18005B6803F48033002B03D0BA693B69134331
:101F2800BB617B69BA691A60FB690133FB613B6875
:101F38001A68FB6922FA03F3002B7FF463AE00BF33
:101F480000BF2437BD465DF8047B70470004005885
:101F580080B483B000AF78600B467B8013467B70FB
:101F68007B78002B03D07A887B689A6103E07B88B2
:101F78001A047B689A6100BF0C37BD465DF8047B84
:101F8800704780B485B000AF78600B467B807B6873
:101F98005B69FB607A88FB6813401A04FB68D943C5
:101FA8007B880B401A437B689A6100BF1437BD4693
:101FB8005DF8047B7047000080B483B000AF7860A0
:101FC800084A7B68203352F82330074A934201D1EC
:101FD800002300E0012318460C37BD465DF8047B5A
:101FE800704700BF006402580003008080B483B0CB
:101FF80000AF7860396006493B6843F440727B68FB
:1020080041F8232000BF0C37BD465DF8047B7047BC
:102018000064025880B584B000AF7860294BDB6853
:1020280003F00703062B0AD0264BDB6803F03F03B7
:102038007A689A4201D0012340E000233EE0214B18
:10204800DB6823F03F021F497B681343CB60FEF730
:10205800A3FEF86009E0FEF79FFE0246FB68D31A6C
:10206800B3F57A7F01D9012328E0164B5B6803F4A6
:102078000053B3F5005FEED17B681E2B08D07B6858
:102088002E2B05D07B681D2B02D07B682D2B14D1FD
:10209800FEF782FEF86009E0FEF77EFE0246FB6866
:1020A800D31AB3F57A7F01D9012307E0054BDB6822
:1020B80003F48033B3F5803FEED100231846103780
:1020C800BD4680BD0048025880B58CB000AF78602E
:1020D8007B68002B02D1012300F048BC7B681B6899
:1020E80003F00103002B00F08880994B1B6903F073
:1020F8003803FB62964B9B6ABB62FB6A102B07D0C6
:10210800FB6A182B11D1BB6A03F00303022B0CD115
:102118008F4B1B6803F40033002B6DD07B685B6822
:10212800002B69D1012300F021BC7B685B68B3F503
:10213800803F06D1864B1B68854A43F48033136081
:102148002EE07B685B68002B0CD1814B1B68804AB2
:1021580023F4803313607E4B1B687D4A23F480236D
:1021680013601DE07B685B68B3F5A02F0CD1784B3A
:102178001B68774A43F480231360754B1B68744AC5
:1021880043F4803313600BE0714B1B68704A23F4EF
:10219800803313606E4B1B686D4A23F480231360F1
:1021A8007B685B68002B13D0FEF7F6FD786208E0C9
:1021B800FEF7F2FD02467B6AD31A642B01D903238A
:1021C800D4E3634B1B6803F40033002BF0D014E016
:1021D800FEF7E2FD786208E0FEF7DEFD02467B6A64
:1021E800D31A642B01D90323C0E3594B1B6803F4AA
:1021F8000033002BF0D100E000BF7B681B6803F0C0
:102208000203002B00F0CA80514B1B6903F038030E
:102218003B624F4B9B6AFB613B6A002B07D03B6AD2
:10222800182B56D1FB6903F00303002B51D1484BFF
:102238001B6803F00403002B05D07B68DB68002BC8
:1022480001D1012392E3424B1B6823F019027B68FA
:10225800DB683F4913430B60FEF79EFD786208E098
:10226800FEF79AFD02467B6AD31A022B01D9032393
:102278007CE3374B1B6803F00403002BF0D0FEF718
:10228800BBFD034641F20302934217D87B681B69E2
:10229800402B08D12E4B5B6823F47C332C4A43F443
:1022A800003353607AE02A4B5B6823F47C327B6806
:1022B8001B691B03264913434B606FE0244B5B6883
:1022C80023F0FE427B681B691B06214913434B60C0
:1022D80064E07B68DB68002B47D01D4B1B6823F04C
:1022E80019027B68DB681A4913430B60FEF754FD3B
:1022F800786208E0FEF750FD02467B6AD31A022B8B
:1023080001D9032332E3124B1B6803F00403002BAB
:10231800F0D0FEF771FD034641F20302934219D84B
:102328007B681B69402B08D1094B5B6823F47C331D
:10233800074A43F40033536030E0054B5B6823F4ED
:102348007C327B681B691B03014913434B6025E002
:10235800004402589A4B5B6823F0FE427B681B6975
:102368001B06974913434B6018E0954B1B68944A2A
:1023780023F001031360FEF70FFD786208E0FEF713
:102388000BFD02467B6AD31A022B01D90323EDE227
:102398008B4B1B6803F00403002BF0D17B681B6890
:1023A80003F01003002B00F0A980854B1B6903F094
:1023B8003803BB61824B9B6A7B61BB69082B07D0E2
:1023C800BB69182B3AD17B6903F00303012B35D184
:1023D8007B4B1B6803F48073002B05D07B68DB699B
:1023E800802B01D00123C1E2FEF706FD034641F22E
:1023F8000302934217D87B681B6A202B08D1704BC5
:102408005B6823F0F8436E4A43F08043536075E0FD
:102418006B4B5B6823F0F8427B681B6A9B06684934
:1024280013434B606AE0664BDB6823F07C527B68A1
:102438001B6A1B0662491343CB605FE07B68DB695C
:10244800002B42D05E4B1B685D4A43F0800313604B
:10245800FEF7A2FC786208E0FEF79EFC02467B6A63
:10246800D31A022B01D9032380E2554B1B6803F4CE
:102478008073002BF0D0FEF7BFFC034641F2030245
:10248800934217D87B681B6A202B08D14C4B5B689A
:1024980023F0F8434A4A43F0804353602EE0484B08
:1024A8005B6823F0F8427B681B6A9B064449134328
:1024B8004B6023E0424BDB6823F07C527B681B6A4D
:1024C8001B063F491343CB6018E03D4B1B683C4A51
:1024D80023F080031360FEF75FFC786208E0FEF7E4
:1024E8005BFC02467B6AD31A022B01D903233DE227
:1024F800334B1B6803F48073002BF0D17B681B6897
:1025080003F00803002B36D07B685B69002B19D0D9
:102518002B4B5B6F2A4A43F001035367FEF73CFCE1
:10252800786208E0FEF738FC02467B6AD31A022B71
:1025380001D903231AE2224B5B6F03F00203002B3D
:10254800F0D018E01E4B5B6F1D4A23F00103536760
:10255800FEF722FC786208E0FEF71EFC02467B6A62
:10256800D31A022B01D9032300E2154B5B6F03F04A
:102578000203002BF0D17B681B6803F02003002BBB
:1025880039D07B689B69002B1CD00D4B1B680C4A0B
:1025980043F480531360FEF7FFFB786208E0FEF710
:1025A800FBFB02467B6AD31A022B01D90323DDE128
:1025B800034B1B6803F40053002BF0D01BE000BF53
:1025C800004402589B4B1B689A4A23F480531360BB
:1025D800FEF7E2FB786208E0FEF7DEFB02467B6A64
:1025E800D31A022B01D90323C0E1924B1B6803F4D1
:1025F8000053002BF0D17B681B6803F00403002B09
:1026080000F081808C4B1B688B4A43F48073136005
:10261800FEF7C2FB786208E0FEF7BEFB02467B6A63
:10262800D31A642B01D90323A0E1834B1B6803F45D
:102638008073002BF0D07B689B68012B06D17D4B03
:102648001B6F7C4A43F0010313672DE07B689B688E
:10265800002B0CD1774B1B6F764A23F001031367CD
:10266800744B1B6F734A23F0040313671CE07B68E9
:102678009B68052B0CD16F4B1B6F6E4A43F004030C
:1026880013676C4B1B6F6B4A43F0010313670BE036
:10269800684B1B6F674A23F001031367654B1B6F79
:1026A800644A23F0040313677B689B68002B15D0EA
:1026B800FEF772FB78620AE0FEF76EFB02467B6A61
:1026C800D31A41F28832934201D903234EE1594B80
:1026D8001B6F03F00203002BEED014E0FEF75CFB47
:1026E80078620AE0FEF758FB02467B6AD31A41F289
:1026F8008832934201D9032338E14E4B1B6F03F014
:102708000203002BEED17B685B6A002B00F02D8161
:10271800484B1B6903F03803182B00F0BD807B6819
:102728005B6A022B40F09E80424B1B68414A23F0B3
:1027380080731360FEF730FB786208E0FEF72CFB2D
:1027480002467B6AD31A022B01D903230EE1394BC7
:102758001B6803F00073002BF0D1364B9A6A374B95
:1027680013407A68916A7A68D26A12010A43314939
:1027780013438B627B681B6B013BC3F308027B68C6
:102788005B6B013B5B029BB21A437B689B6B013B13
:102798001B0403F4FE031A437B68DB6B013B1B0637
:1027A80003F0FE43234913430B63224BDB6A214AA0
:1027B80023F00103D3621F4B5A6B214B13407A68F5
:1027C800926CD2001B4913434B631A4BDB6A23F00C
:1027D8000C027B681B6C17491343CB62154BDB6AF1
:1027E80023F002027B685B6C12491343CB62114BE6
:1027F800DB6A104A43F48033D3620E4BDB6A0D4A1E
:1028080043F40033D3620B4BDB6A0A4A43F4802358
:10281800D362084BDB6A074A43F00103D362054BD6
:102828001B68044A43F080731360FEF7B5FA7862B8
:1028380011E000BF00440258004802580CFCFFFF9A
:102848000700FFFFFEF7A8FA02467B6AD31A022B9D
:1028580001D903238AE0474B1B6803F00073002B60
:10286800F0D082E0434B1B68424A23F08073136028
:10287800FEF792FA786208E0FEF78EFA02467B6A63
:10288800D31A022B01D9032370E03A4B1B6803F0DB
:102898000073002BF0D168E0364B9B6A3B61354BE7
:1028A8001B6BFB607B685B6A012B31D03B6903F0D3
:1028B80003027B689B6A9A422AD13B691B0903F091
:1028C8003F027B68DB6A9A4222D1FB68C3F30802A5
:1028D8007B681B6B013B9A421AD1FB685B0A03F0C9
:1028E8007F027B685B6B013B9A4211D1FB681B0C32
:1028F80003F07F027B689B6B013B9A4208D1FB681F
:102908001B0E03F07F027B68DB6B013B9A4201D010
:1029180001232BE0174B5B6BDB08C3F30C033B6114
:102928007B689B6C3A699A421FD0124BDB6A114A4A
:1029380023F00103D362FEF72FFA786200BFFEF797
:102948002BFA02467B6A9342F9D00A4B5A6B0A4B20
:1029580013407A68926CD200064913434B63054BC7
:10296800DB6A044A43F00103D36200231846303778
:10297800BD4680BD004402580700FFFF80B586B001
:1029880000AF786039607B68002B01D101239CE19E
:102998008A4B1B6803F00F033A689A4210D9874B99
:1029A8001B6823F00F0285493B6813430B60834B78
:1029B8001B6803F00F033A689A4201D0012384E1AF
:1029C8007B681B6803F00403002B10D07B681A692E
:1029D8007B4B9B6903F070039A4208D9784B9B693B
:1029E80023F070027B681B69754913438B617B6810
:1029F8001B6803F00803002B10D07B685A69704BE2
:102A0800DB6903F070039A4208D96D4BDB6923F048
:102A180070027B685B696A491343CB617B681B68FA
:102A280003F01003002B10D07B689A69644BDB69B4
:102A380003F4E0639A4208D9614BDB6923F4E0624E
:102A48007B689B695E491343CB617B681B6803F015
:102A58002003002B10D07B68DA69594B1B6A03F0FE
:102A680070039A4208D9564B1B6A23F070027B68A0
:102A7800DB69534913430B627B681B6803F002034D
:102A8800002B10D07B68DA684D4B9B6903F00F036D
:102A98009A4208D94A4B9B6923F00F027B68DB688E
:102AA800474913438B617B681B6803F00103002BC4
:102AB80055D0434B9B6923F470627B689B684049FF
:102AC80013438B617B685B68022B07D13C4B1B6807
:102AD80003F40033002B21D10123F6E07B685B6807
:102AE800032B07D1364B1B6803F00073002B15D15D
:102AF8000123EAE07B685B68012B07D1304B1B6838
:102B080003F48073002B09D10123DEE02C4B1B68F2
:102B180003F00403002B01D10123D6E0284B1B69E5
:102B280023F007027B685B68254913430B61FEF7B6
:102B380033F978610AE0FEF72FF902467B69D31A68
:102B480041F28832934201D90323BEE01C4B1B6932
:102B580003F038027B685B68DB009A42EBD17B6844
:102B68001B6803F00203002B10D07B68DA68144B53
:102B78009B6903F00F039A4208D2114B9B6923F01B
:102B88000F027B68DB680E4913438B610B4B1B6894
:102B980003F00F033A689A4214D2084B1B6823F0DB
:102BA8000F0206493B6813430B60044B1B6803F094
:102BB8000F033A689A4205D0012386E000200052AC
:102BC800004402587B681B6803F00403002B10D0F4
:102BD8007B681A693F4B9B6903F070039A4208D2DD
:102BE8003C4B9B6923F070027B681B69394913438E
:102BF8008B617B681B6803F00803002B10D07B688F
:102C08005A69344BDB6903F070039A4208D2314B9E
:102C1800DB6923F070027B685B692E491343CB6143
:102C28007B681B6803F01003002B10D07B689A693F
:102C3800284BDB6903F4E0639A4208D2254BDB6931
:102C480023F4E0627B689B6922491343CB617B686C
:102C58001B6803F02003002B10D07B68DA691D4B3A
:102C68001B6A03F070039A4208D21A4B1B6A23F0BE
:102C780070027B68DB69174913430B6200F034F874
:102C88000246144B9B691B0A03F00F031249CB5CE5
:102C980003F01F0322FA03F33B610E4B9B6903F019
:102CA8000F030D4AD35C03F01F033A6922FA03F3BA
:102CB8000A4A13600A4A3B6913600A4B1B681846A4
:102CC800FEF720F80346FB73FB7B18461837BD4612
:102CD80080BD00BF004402589C680008040000241E
:102CE800000000241C00002480B489B000AFB34B5E
:102CF8001B6903F03803182B00F2558101A252F822
:102D080023F000BF712D0008AF2F0008AF2F000877
:102D1800AF2F0008AF2F0008AF2F0008AF2F000813
:102D2800AF2F0008972D0008AF2F0008AF2F00081D
:102D3800AF2F0008AF2F0008AF2F0008AF2F0008F3
:102D4800AF2F00089D2D0008AF2F0008AF2F0008F7
:102D5800AF2F0008AF2F0008AF2F0008AF2F0008D3
:102D6800AF2F0008A32D0008944B1B6803F0200325
:102D7800002B09D0914B1B68DB0803F00303904A32
:102D880022FA03F3BB6111E18D4BBB610EE18D4B60
:102D9800BB610BE18C4BBB6108E1884B9B6A03F07C
:102DA80003037B61854B9B6A1B0903F03F033B616F
:102DB800824BDB6A03F00103FB60804B5B6BDB0833
:102DC800C3F30C03FA6802FB03F307EE903AF8EE3C
:102DD800677AC7ED027A3B69002B00F0E1807B69D6
:102DE800022B00F083807B69022B00F2A1807B69B3
:102DF800002B03D07B69012B56D099E06F4B1B68E1
:102E080003F02003002B2DD06C4B1B68DB0803F06C
:102E180003036B4A22FA03F37B607B6807EE903A60
:102E2800F8EE676A3B6907EE903AF8EE677A86EE45
:102E3800A77A624B1B6BC3F3080307EE903AF8EED0
:102E4800676A97ED026ADFED615AC6EE257A76EE7B
:102E5800A77AF7EE006A77EEA67A67EE277AC7EDCB
:102E6800077A87E03B6907EE903AF8EE677ADFED7C
:102E7800586A86EEA77A514B1B6BC3F3080307EE1B
:102E8800903AF8EE676A97ED026ADFED505AC6EE9F
:102E9800257A76EEA77AF7EE006A77EEA67A67EEDD
:102EA800277AC7ED077A65E03B6907EE903AF8EEB6
:102EB800677ADFED486A86EEA77A404B1B6BC3F34F
:102EC800080307EE903AF8EE676A97ED026ADFEDBD
:102ED8003F5AC6EE257A76EEA77AF7EE006A77EEC5
:102EE800A67A67EE277AC7ED077A43E03B6907EED3
:102EF800903AF8EE677ADFED386A86EEA77A2F4BBC
:102F08001B6BC3F3080307EE903AF8EE676A97ED78
:102F1800026ADFED2E5AC6EE257A76EEA77AF7EE2C
:102F2800006A77EEA67A67EE277AC7ED077A21E07E
:102F38003B6907EE903AF8EE677ADFED266A86EE8F
:102F4800A77A1E4B1B6BC3F3080307EE903AF8EE03
:102F5800676A97ED026ADFED1D5AC6EE257A76EEAE
:102F6800A77AF7EE006A77EEA67A67EE277AC7EDBA
:102F7800077A00BF114B1B6B5B0A03F07F03013319
:102F88003B603B6807EE903AB8EE677AD7ED076A80
:102F9800C6EE877AFCEEE77A17EE903ABB6105E059
:102FA8000023BB6102E0074BBB6100BFBB69184649
:102FB8002437BD465DF8047B704700BF00440258C3
:102FC8000090D00300093D0040787D0100000046D4
:102FD8000024744C0024744A20BCBE4B80B582B0D7
:102FE80000AFFFF781FE0246104B9B691B0A03F0F6
:102FF8000F030F49CB5C03F01F0322FA03F37B6036
:103008000A4B9B6903F00F03094AD35C03F01F03C3
:103018007A6822FA03F3074A1360074A7B68136049
:10302800044B1B6818460837BD4680BD004402584B
:103038009C680008040000240000002480B500AF4C
:10304800FFF7CCFF0246064BDB691B0903F00703B9
:103058000449CB5C03F01F0322FA03F3184680BD32
:10306800004402589C68000880B500AFFFF7B6FF1F
:103078000246064BDB691B0A03F007030449CB5CD5
:1030880003F01F0322FA03F3184680BD00440258D8
:103098009C6800082DE9B04FCAB000AFC7F814010A
:1030A800002387F82731002387F82631D7F8143111
:1030B800D3E9002302F00064002554EA050349D04F
:1030C800D7F814319B6EB3F5401F2FD0B3F5401FCE
:1030D80028D8B3F5001F1AD0B3F5001F22D8002B4B
:1030E80003D0B3F5801F07D01CE0B84BDB6AB74AA2
:1030F80043F40033D3621AE0D7F8143108330221BD
:10310800184601F08FFC034687F827310FE0D7F8FF
:10311800143128330221184601F036FD034687F89A
:10312800273104E0012387F8273100E000BF97F832
:103138002731002B0AD1A54B1B6D23F44011D7F87A
:1031480014319B6EA14A0B43136503E097F82731AE
:1031580087F82631D7F81431D3E9002302F48078B0
:103168004FF0000958EA090347D0D7F814319B6D8E
:10317800042B2AD801A252F823F000BF9931000885
:10318800A7310008BD310008DB310008DB31000839
:103198008E4BDB6A8D4A43F40033D3621AE0D7F8CA
:1031A800143108330021184601F03CFC034687F827
:1031B80027310FE0D7F8143128330021184601F0E1
:1031C800E3FC034687F8273104E0012387F8273119
:1031D80000E000BF97F82731002B0AD17B4B1B6D0D
:1031E80023F00701D7F814319B6D784A0B43136518
:1031F80003E097F8273187F82631D7F81431D3E957
:10320800002302F4007A4FF0000B5AEA0B034CD06B
:10321800D7F81431DB6DB3F5807F30D0B3F5807FFC
:1032280029D8C02B2DD0C02B25D8802B18D0802B87
:1032380021D8002B02D0402B07D01CE0634BDB6A5F
:10324800624A43F40033D3621CE0D7F814310833E0
:103258000021184601F0E6FB034687F8273111E004
:10326800D7F8143128330021184601F08DFC0346A5
:1032780087F8273106E0012387F8273102E000BFED
:1032880000E000BF97F82731002B0AD14F4B1B6D88
:1032980023F4E071D7F81431DB6D4C4A0B43136506
:1032A80003E097F8273187F82631D7F81431D3E9A6
:1032B800002302F48063C7F808310023C7F80C31F3
:1032C800D7E942120B46134353D0D7F81431D3F839
:1032D800A830B3F5000F35D0B3F5000F2ED8B3F5ED
:1032E800C00F31D0B3F5C00F28D8B3F5800F1AD06E
:1032F800B3F5800F22D8002B03D0B3F5001F07D0F9
:103308001CE0324BDB6A314A43F40033D3621CE0E1
:10331800D7F8143108330021184601F083FB03461F
:1033280087F8273111E0D7F81431283300211846DF
:1033380001F02AFC034687F8273106E0012387F8C5
:10334800273102E000BF00E000BF97F82731002BCB
:103358000BD11E4B9B6D23F46001D7F81431D3F8C1
:10336800A8301A4A0B43936503E097F8273187F88A
:103378002631D7F81431D3E9002302F40063C7F8E3
:1033880000310023C7F80431D7E940120B46134334
:1033980056D0D7F81431D3F8AC30B3F1806F38D0A9
:1033A800B3F1806F31D8B3F1407F34D0B3F1407FAF
:1033B8002BD8B3F1007F1DD0B3F1007F25D8002BA7
:1033C80006D0B3F1807F0AD01FE000BF0044025846
:1033D800A24BDB6AA14A43F40033D3621CE0D7F85E
:1033E800143108330021184601F01CFB034687F806
:1033F800273111E0D7F8143128330021184601F09D
:10340800C3FB034687F8273106E0012387F82731F5
:1034180002E000BF00E000BF97F82731002B0BD176
:103428008E4B9B6D23F0E061D7F81431D3F8AC30A4
:103438008A4A0B43936503E097F8273187F82631CA
:10344800D7F81431D3E9002302F00073C7F8F83035
:103458000023C7F8FC30D7E93E120B4613433AD095
:10346800D7F81431DB6C302B1FD0302B19D8202B18
:103478000CD0202B15D8002B19D0102B11D1774B3D
:10348800DB6A764A43F40033D36211E0D7F814318B
:1034980008330221184601F0C5FA034687F8273198
:1034A80006E0012387F8273102E000BF00E000BFF3
:1034B80097F82731002B0AD1684BDB6C23F03001D9
:1034C800D7F81431DB6C654A0B43D36403E097F8F3
:1034D800273187F82631D7F81431D3E9002302F4CD
:1034E8008053C7F8F0300023C7F8F430D7E93C120E
:1034F8000B46134351D0D7F814311B6EB3F5804FE8
:1035080035D0B3F5804F2ED8B3F5405F31D0B3F541
:10351800405F28D8B3F5005F1AD0B3F5005F22D812
:10352800002B03D0B3F5805F07D01CE04B4BDB6A60
:103538004A4A43F40033D3621CE0D7F81431083305
:103548000021184601F06EFA034687F8273111E08A
:10355800D7F8143128330021184601F015FB03462B
:1035680087F8273106E0012387F8273102E000BFFA
:1035780000E000BF97F82731002B0AD1374B1B6DAD
:1035880023F4E041D7F814311B6E344A0B4313651A
:1035980003E097F8273187F82631D7F81431D3E9B3
:1035A800002302F40053C7F8E8300023C7F8EC30D2
:1035B800D7E93A120B46134356D0D7F814315B6E4D
:1035C800B3F5A02F33D0B3F5A02F2CD8B3F5802FA7
:1035D8002FD0B3F5802F26D8B3F5403F2BD0B3F5C5
:1035E800403F20D8B3F5003F12D0B3F5003F1AD8BA
:1035F800002B22D0B3F5803F15D1D7F8143108330A
:103608000121184601F00EFA034687F8273115E024
:10361800D7F8143128330121184601F0B5FA0346CA
:1036280087F827310AE0012387F8273106E000BF31
:1036380004E000BF02E000BF00E000BF97F82731B8
:10364800002B0DD1054B1B6D23F4E021D7F8143165
:103658005B6E024A0B43136506E000BF0044025844
:1036680097F8273187F82631D7F81431D3E90023A2
:1036780002F48043C7F8E0300023C7F8E430D7E904
:1036880038120B46134355D0D7F81431D3F8B0305D
:10369800B3F1A04F33D0B3F1A04F2CD8B3F1804F82
:1036A8002FD0B3F1804F26D8B3F1405F2BD0B3F1C0
:1036B800405F20D8B3F1005F12D0B3F1005F1AD891
:1036C800002B22D0B3F1805F15D1D7F8143108331D
:1036D8000121184601F0A6F9034687F8273115E0BD
:1036E800D7F8143128330121184601F04DFA034662
:1036F80087F827310AE0012387F8273106E000BF61
:1037080004E000BF02E000BF00E000BF97F82731E7
:10371800002B0BD1A34B9B6D23F0E041D7F814315C
:10372800D3F8B0309F4A0B43936503E097F82731ED
:1037380087F82631D7F81431D3E9002302F400437F
:10374800C7F8D8300023C7F8DC30D7E936120B4663
:10375800134337D0D7F814311B6FB3F1005F0ED085
:10376800B3F1005F16D8002B18D0B3F1805F11D1E8
:103778008C4BDB6A8B4A43F40033D3620FE0D7F8F3
:10378800143108330121184601F04CF9034687F833
:10379800273104E0012387F8273100E000BF97F8BC
:1037A8002731002B0AD17F4B1B6D23F04051D7F8EE
:1037B80014311B6F7B4A0B43136503E097F82731DD
:1037C80087F82631D7F81431D3E9002302F0807343
:1037D800C7F8D0300023C7F8D430D7E934120B46E5
:1037E800134339D0D7F814319B6C032B1CD801A292
:1037F80052F823F0393800080D3800081B38000843
:1038080039380008674BDB6A664A43F40033D362F1
:103818000FE0D7F8143108330221184601F002F9F5
:10382800034687F8273104E0012387F8273100E0B1
:1038380000BF97F82731002B0AD15A4BDB6C23F0D5
:103848000301D7F814319B6C564A0B43D36403E049
:1038580097F8273187F82631D7F81431D3E90023B0
:1038680002F48003C7F8C8300023C7F8CC30D7E982
:1038780032120B46134300F09F804B4B1B684A4A99
:1038880043F480731360FDF787FAC7F820010BE053
:10389800FDF782FA0246D7F82031D31A642B03D9F0
:1038A800032387F8273105E03F4B1B6803F4807337
:1038B800002BEDD097F82731002B79D1394B1A6FAF
:1038C800D7F81431D3F8B430534003F44073002BC5
:1038D80015D0344B1B6F23F44073C7F81C31314BA0
:1038E8001B6F304A43F4803313672E4B1B6F2D4AEE
:1038F80023F4803313672B4AD7F81C311367D7F8A2
:103908001431D3F8B430B3F5807F18D1FDF744FAF9
:10391800C7F820010DE0FDF73FFA0246D7F820313D
:10392800D21A41F288339A4203D9032387F8273100
:1039380005E01C4B1B6F03F00203002BEBD097F83C
:103948002731002B29D1D7F81431D3F8B43003F438
:103958004073B3F5407F0ED1124B1B6923F47C51A1
:10396800D7F81431D3F8B4301A09104B13400D4A64
:103978000B43136105E00B4B1B690A4A23F47C5384
:103988001361084B196FD7F81431D3F8B430C3F367
:103998000B03044A0B4313670EE097F8273187F8A7
:1039A800263109E00044025800480258CFFFFF00C2
:1039B80097F8273187F82631D7F81431D3E900234F
:1039C80002F00103C7F8C0300023C7F8C430D7E9B4
:1039D80030120B46134300F08980D7F81431DB6F9F
:1039E800282B6BD801A252F823F000BFCD3A00086B
:1039F800C53A0008C53A0008C53A0008C53A0008A3
:103A0800C53A0008C53A0008C53A0008993A0008BE
:103A1800C53A0008C53A0008C53A0008C53A000882
:103A2800C53A0008C53A0008C53A0008AF3A000888
:103A3800C53A0008C53A0008C53A0008C53A000862
:103A4800C53A0008C53A0008C53A0008CD3A00084A
:103A5800C53A0008C53A0008C53A0008C53A000842
:103A6800C53A0008C53A0008C53A0008CD3A00082A
:103A7800C53A0008C53A0008C53A0008C53A000822
:103A8800C53A0008C53A0008C53A0008CD3A00080A
:103A9800D7F8143108330121184600F0C3FF034654
:103AA80087F827310FE0D7F8143128330121184659
:103AB80001F06AF8034687F8273104E0012387F804
:103AC800273100E000BF97F82731002B0AD1BF4B00
:103AD8005B6D23F03801D7F81431DB6FBB4A0B4319
:103AE800536503E097F8273187F82631D7F8143162
:103AF800D3E9002302F00203C7F8B8300023C7F85F
:103B0800BC30D7E92E120B46134341D0D7F81431F5
:103B18009B6F052B24D801A252F823F0713B0008B3
:103B28003D3B0008533B0008713B0008713B00080F
:103B3800713B0008D7F8143108330121184600F00A
:103B480071FF034687F827310FE0D7F8143128337F
:103B58000121184601F018F8034687F8273104E0D8
:103B6800012387F8273100E000BF97F82731002BA1
:103B78000AD1964B5B6D23F00701D7F814319B6F80
:103B8800924A0B43536503E097F8273187F82631AB
:103B9800D7F81431D3E9002302F00403C7F8B03092
:103BA8000023C7F8B430D7E92C120B46134344D08E
:103BB800D7F81431D3F89430052B25D801A252F840
:103BC80023F000BF193C0008E53B0008FB3B000858
:103BD800193C0008193C0008193C0008D7F81431B2
:103BE80008330121184600F01DFF034687F82731E6
:103BF8000FE0D7F8143128330121184600F0C4FF2C
:103C0800034687F8273104E0012387F8273100E0CD
:103C180000BF97F82731002B0BD16C4B9B6D23F01D
:103C28000701D7F81431D3F89430684A0B439365E9
:103C380003E097F8273187F82631D7F81431D3E90C
:103C4800002302F02003C7F8A8300023C7F8AC30DF
:103C5800D7E92A120B46134355D0D7F81431D3F8B5
:103C68009030B3F1A04F33D0B3F1A04F2CD8B3F1BB
:103C7800804F2FD0B3F1804F26D8B3F1405F2BD0BF
:103C8800B3F1405F20D8B3F1005F12D0B3F1005F09
:103C98001AD8002B22D0B3F1805F15D1D7F8143190
:103CA80008330021184600F0BDFE034687F8273187
:103CB80015E0D7F8143128330221184600F064FFC4
:103CC800034687F827310AE0012387F8273106E001
:103CD80000BF04E000BF02E000BF00E000BF97F8AB
:103CE8002731002B0BD1394B5B6D23F0E041D7F81E
:103CF8001431D3F89030354A0B43536503E097F8F5
:103D0800273187F82631D7F81431D3E9002302F098
:103D18004003C7F8A0300023C7F8A430D7E9281219
:103D28000B46134358D0D7F81431D3F89C30B3F569
:103D3800A05F33D0B3F5A05F2CD8B3F5805F2FD048
:103D4800B3F5805F26D8B3F5406F2BD0B3F5406F3D
:103D580020D8B3F5006F12D0B3F5006F1AD8002B36
:103D680022D0B3F5806F15D1D7F81431083300216C
:103D7800184600F057FE034687F8273115E0D7F8B4
:103D8800143128330221184600F0FEFE034687F856
:103D980027310AE0012387F8273106E000BF04E055
:103DA80000BF02E000BF00E000BF97F82731002BFA
:103DB8000ED1064B9B6D23F4E051D7F81431D3F89C
:103DC8009C30024A0B43936506E000BF004402584A
:103DD80097F8273187F82631D7F81431D3E900232B
:103DE80002F08003C7F898300023C7F89C30D7E961
:103DF80026120B46134355D0D7F81431D3F8A03008
:103E0800B3F5204F33D0B3F5204F2CD8B3F5004F7E
:103E18002FD0B3F5004F26D8B3F5C04F2BD0B3F54C
:103E2800C04F20D8B3F5804F12D0B3F5804F1AD8C1
:103E3800002B22D0B3F5005F15D1D7F81431083321
:103E48000021184600F0EEFD034687F8273115E0FB
:103E5800D7F8143128330221184600F095FE03469E
:103E680087F827310AE0012387F8273106E000BFE9
:103E780004E000BF02E000BF00E000BF97F8273170
:103E8800002B0BD1A14B9B6D23F46041D7F8143163
:103E9800D3F8A0309D4A0B43936503E097F8273188
:103EA80087F82631D7F81431D3E9002302F0080344
:103EB800C7F890300023C7F89430D7E924120B468E
:103EC80013431ED0D7F81431D3F88430B3F5805F8C
:103ED8000CD1D7F8143128330221184600F054FECB
:103EE8000346002B02D0012387F82631874B5B6DF0
:103EF80023F44051D7F81431D3F88430834A0B4364
:103F08005365D7F81431D3E9002302F01003C7F83A
:103F180088300023C7F88C30D7E922120B461343A8
:103F28001ED0D7F81431D3F89830B3F5807F0CD170
:103F3800D7F8143128330221184600F025FE03462D
:103F4800002B02D0012387F82631704B9B6D23F498
:103F58004071D7F81431D3F898306C4A0B43936505
:103F6800D7F81431D3E9002302F40023C7F88030CE
:103F78000023C7F88430D7E920120B4613433ED0FC
:103F8800D7F81431D3F8A430B3F5003F22D0B3F5F5
:103F9800003F1BD8002B03D0B3F5803F0BD015E0B2
:103FA800D7F8143108330021184600F03BFD0346CA
:103FB80087F827310FE0D7F8143128330221184643
:103FC80000F0E2FD034687F8273104E0012387F873
:103FD800273100E000BF97F82731002B0BD14B4B5E
:103FE8009B6D23F44031D7F81431D3F8A430474AF5
:103FF8000B43936503E097F8273187F82631D7F804
:104008001431D3E9002302F48023BB670023FB6744
:10401800D7E91E120B4613433BD0D7F81431D3F817
:104028008830B3F5401F1FD0B3F5401F18D8B3F53B
:10403800801F03D0B3F5001F07D011E0334BDB6AB4
:10404800324A43F40033D3620FE0D7F814312833EF
:104058000121184600F098FD034687F8273104E04F
:10406800012387F8273100E000BF97F82731002B9C
:104078000BD1264B5B6D23F44011D7F81431D3F8DC
:104088008830224A0B43536503E097F8273187F8B5
:104098002631D7F81431D3E9002302F480333B6783
:1040A80000237B67D7E91C120B46134334D0D7F89B
:1040B80014311B6D002B03D0B3F5803F07D011E0FE
:1040C800124BDB6A114A43F40033D3620EE0D7F88F
:1040D800143108330221184600F0A4FC034687F87F
:1040E800273103E0012387F8273100BF97F82731EC
:1040F800002B0DD1054BDB6C23F48031D7F814313C
:104108001B6D024A0B43D36406E000BF004402580B
:1041180097F8273187F82631D7F81431D3E90023E7
:1041280002F00053BB660023FB66D7E91A120B4660
:1041380013430CD0D7F8143128330221184600F065
:1041480023FD0346002B02D0012387F82631D7F838
:104158001431D3E9002302F400333B6600237B6665
:10416800D7E918120B46134338D0D7F81431D3F8CF
:104178008030B3F5407F18D0B3F5407F11D8B3F540
:10418800007F14D0B3F5007F0BD8002B11D0B3F506
:10419800807F06D1C34BDB6AC24A43F40033D36243
:1041A80008E0012387F8273104E000BF02E000BFE0
:1041B80000E000BF97F82731002B0BD1B94B5B6D9E
:1041C80023F44071D7F81431D3F88030B54A0B4343
:1041D800536503E097F8273187F82631D7F814316B
:1041E800D3E9002302F48013BB650023FB65D7E9FC
:1041F80016120B46134309D0AA4B1B6D23F000413E
:10420800D7F814315B6FA74A0B431365D7F81431FD
:10421800D3E9002302F080533B6500237B65D7E98F
:1042280014120B4613430AD09E4B1B6923F480419A
:10423800D7F81431D3F8B8309A4A0B431361D7F83A
:104248001431D3E9002302F40013BB640023FB6498
:10425800D7E912120B46134309D0924B1B6D23F07A
:104268008071D7F81431DB6E8E4A0B431365D7F88B
:104278001431D3E9002302F080433B6400237B64BC
:10428800D7E910120B4613430ED0864B1B69854A9B
:1042980023F400431361834B1969D7F81431D3F819
:1042A800BC30804A0B431361D7F81431D3E900239B
:1042B80002F00043BB630023FB63D7E90E120B46F1
:1042C800134309D0774BDB6C23F04051D7F81431F6
:1042D8005B6D744A0B43D364D7F81431D3E90023D8
:1042E80002F400033B6300237B63D7E90C120B46FF
:1042F80013430AD06B4B5B6D23F44001D7F814319C
:10430800D3F88C30674A0B435365D7F81431D3E997
:1043180000230021B96203F00103FB62D7E90A1206
:104328000B46134311D0D7F814310833002118462F
:1043380000F078FB034687F8273197F82731002BE0
:1043480003D097F8273187F82631D7F81431D3E905
:1043580000230021396203F002037B62D7E90812C7
:104368000B46134311D0D7F81431083301211846EE
:1043780000F058FB034687F8273197F82731002BC0
:1043880003D097F8273187F82631D7F81431D3E9C5
:1043980000230021B96103F00403FB61D7E9061289
:1043A8000B46134311D0D7F81431083302211846AD
:1043B80000F038FB034687F8273197F82731002BA0
:1043C80003D097F8273187F82631D7F81431D3E985
:1043D80000230021396103F008037B61D7E9041247
:1043E8000B46134311D0D7F814312833002118464F
:1043F80000F0CAFB034687F8273197F82731002BCE
:1044080003D097F8273187F82631D7F81431D3E944
:1044180000230021B96003F01003FB60D7E9021202
:104428000B46134311D0D7F814312833012118460D
:1044380000F0AAFB034687F8273197F82731002BAD
:1044480003D097F8273187F82631D7F81431D3E904
:1044580000230021396003F020037B60D7E90012B4
:104468000B46134311D0D7F81431283302211846CC
:1044780000F08AFB034687F8273197F82731002B8D
:1044880003D097F8273187F8263197F82631002B83
:1044980001D1002300E00123184607F59477BD46B3
:1044A800BDE8B08F0044025880B500AFFEF796FD16
:1044B8000246064B1B6A1B0903F007030449CB5C41
:1044C80003F01F0322FA03F3184680BD0044025884
:1044D8009C68000880B489B000AF7860A14B9B6AE3
:1044E80003F00303BB619F4B9B6A1B0B03F03F0365
:1044F8007B619C4BDB6A1B0903F001033B61994B11
:10450800DB6BDB08C3F30C033A6902FB03F307EE2A
:10451800903AF8EE677AC7ED037A7B69002B00F0D2
:104528001181BB69022B00F08380BB69022B00F26A
:10453800A180BB69002B03D0BB69012B56D099E041
:10454800884B1B6803F02003002B2DD0854B1B687C
:10455800DB0803F00303844A22FA03F3BB60BB6859
:1045680007EE903AF8EE676A7B6907EE903AF8EE44
:10457800677A86EEA77A7B4B9B6BC3F3080307EE3B
:10458800903AF8EE676A97ED036ADFED785AC6EE5F
:10459800257A76EEA77AF7EE006A77EEA67A67EEC6
:1045A800277AC7ED077A87E07B6907EE903AF8EE3D
:1045B800677ADFED6F6A86EEA77A6A4B9B6BC3F367
:1045C800080307EE903AF8EE676A97ED036ADFEDA5
:1045D800675AC6EE257A76EEA77AF7EE006A77EE86
:1045E800A67A67EE277AC7ED077A65E07B6907EE5A
:1045F800903AF8EE677ADFED5F6A86EEA77A594B54
:104608009B6BC3F3080307EE903AF8EE676A97EDE1
:10461800036ADFED565AC6EE257A76EEA77AF7EEEC
:10462800006A77EEA67A67EE277AC7ED077A43E045
:104638007B6907EE903AF8EE677ADFED4F6A86EE0F
:10464800A77A484B9B6BC3F3080307EE903AF8EE42
:10465800676A97ED036ADFED455AC6EE257A76EE6E
:10466800A77AF7EE006A77EEA67A67EE277AC7EDA3
:10467800077A21E07B6907EE903AF8EE677ADFED7A
:104688003D6A86EEA77A374B9B6BC3F3080307EEA8
:10469800903AF8EE676A97ED036ADFED345AC6EE92
:1046A800257A76EEA77AF7EE006A77EEA67A67EEB5
:1046B800277AC7ED077A00BF2A4B9B6B5B0A03F08A
:1046C8007F0307EE903AF8EE677AB7EE007A37EE96
:1046D800877AD7ED076AC6EE877AFCEEE77A17EE97
:1046E800902A7B681A601F4B9B6B1B0C03F07F039F
:1046F80007EE903AF8EE677AB7EE007A37EE877AE7
:10470800D7ED076AC6EE877AFCEEE77A17EE902AAD
:104718007B685A60134B9B6B1B0E03F07F0307EEFD
:10472800903AF8EE677AB7EE007A37EE877AD7EDE7
:10473800076AC6EE877AFCEEE77A17EE902A7B685E
:104748009A6008E07B6800221A607B6800225A6041
:104758007B6800229A6000BF2437BD465DF8047B61
:10476800704700BF004402580090D0030000004684
:104778000024744C0024744A20BCBE4B80B489B019
:1047880000AF7860A14B9B6A03F00303BB619F4BAA
:104798009B6A1B0D03F03F037B619C4BDB6A1B0A82
:1047A80003F001033B61994B5B6CDB08C3F30C031B
:1047B8003A6902FB03F307EE903AF8EE677AC7ED21
:1047C800037A7B69002B00F01181BB69022B00F092
:1047D8008380BB69022B00F2A180BB69002B03D048
:1047E800BB69012B56D099E0884B1B6803F0200366
:1047F800002B2DD0854B1B68DB0803F00303844A8C
:1048080022FA03F3BB60BB6807EE903AF8EE676ADA
:104818007B6907EE903AF8EE677A86EEA77A7B4BCB
:104828001B6CC3F3080307EE903AF8EE676A97ED3E
:10483800036ADFED785AC6EE257A76EEA77AF7EEA8
:10484800006A77EEA67A67EE277AC7ED077A87E0DF
:104858007B6907EE903AF8EE677ADFED6F6A86EECD
:10486800A77A6A4B1B6CC3F3080307EE903AF8EE7D
:10487800676A97ED036ADFED675AC6EE257A76EE2A
:10488800A77AF7EE006A77EEA67A67EE277AC7ED81
:10489800077A65E07B6907EE903AF8EE677ADFED14
:1048A8005F6A86EEA77A594B1B6CC3F3080307EEC1
:1048B800903AF8EE676A97ED036ADFED565AC6EE4E
:1048C800257A76EEA77AF7EE006A77EEA67A67EE93
:1048D800277AC7ED077A43E07B6907EE903AF8EE4E
:1048E800677ADFED4F6A86EEA77A484B1B6CC3F3F5
:1048F800080307EE903AF8EE676A97ED036ADFED72
:10490800455AC6EE257A76EEA77AF7EE006A77EE74
:10491800A67A67EE277AC7ED077A21E07B6907EE6A
:10492800903AF8EE677ADFED3D6A86EEA77A374B64
:104938001B6CC3F3080307EE903AF8EE676A97ED2D
:10494800036ADFED345AC6EE257A76EEA77AF7EEDB
:10495800006A77EEA67A67EE277AC7ED077A00BF76
:104968002A4B1B6C5B0A03F07F0307EE903AF8EEC4
:10497800677AB7EE007A37EE877AD7ED076AC6EE20
:10498800877AFCEEE77A17EE902A7B681A601F4B4D
:104998001B6C1B0C03F07F0307EE903AF8EE677A66
:1049A800B7EE007A37EE877AD7ED076AC6EE877AD0
:1049B800FCEEE77A17EE902A7B685A60134B1B6C63
:1049C8001B0E03F07F0307EE903AF8EE677AB7EE16
:1049D800007A37EE877AD7ED076AC6EE877AFCEE5B
:1049E800E77A17EE902A7B689A6008E07B680022D5
:1049F8001A607B6800225A607B6800229A6000BFB8
:104A08002437BD465DF8047B704700BF0044025858
:104A18000090D003000000460024744C0024744A1F
:104A280020BCBE4B80B584B000AF786039600023ED
:104A3800FB73534B9B6A03F00303032B01D1012340
:104A480099E04F4B1B684E4A23F080631360FCF7D4
:104A5800A3F9B86008E0FCF79FF90246BB68D31ACF
:104A6800022B01D9032386E0454B1B6803F0006342
:104A7800002BF0D1424B9B6A23F47C327B681B6885
:104A88001B033F4913438B627B685B68013BC3F39D
:104A980008027B689B68013B5B029BB21A437B68F8
:104AA800DB68013B1B0403F4FE031A437B681B69A4
:104AB800013B1B0603F0FE43314913438B63304B24
:104AC800DB6A23F0C0027B685B692D491343CB6224
:104AD8002B4BDB6A23F020027B689B692849134330
:104AE800CB62274BDB6A264A23F01003D362244BA0
:104AF800DA6B244B13407A68D269D20020491343F9
:104B0800CB631F4BDB6A1E4A43F01003D3623B683A
:104B1800002B06D11A4BDB6A194A43F40023D362EF
:104B28000FE03B68012B06D1154BDB6A144A43F4AE
:104B38008013D36205E0124BDB6A114A43F4001379
:104B4800D3620F4B1B680E4A43F080631360FCF777
:104B580023F9B86008E0FCF71FF90246BB68D31ACE
:104B6800022B01D9032306E0054B1B6803F0006301
:104B7800002BF0D0FB7B18461037BD4680BD00BF28
:104B8800004402580700FFFF80B584B000AF78608A
:104B980039600023FB73534B9B6A03F00303032B19
:104BA80001D1012399E04F4B1B684E4A23F08053F3
:104BB8001360FCF7F1F8B86008E0FCF7EDF802467E
:104BC800BB68D31A022B01D9032386E0454B1B6827
:104BD80003F00053002BF0D1424B9B6A23F07C7208
:104BE8007B681B681B053F4913438B627B685B68C6
:104BF800013BC3F308027B689B68013B5B029BB2E5
:104C08001A437B68DB68013B1B0403F4FE031A4369
:104C18007B681B69013B1B0603F0FE4331491343C4
:104C28000B64304BDB6A23F440627B685B692D4977
:104C38001343CB622B4BDB6A23F400727B689B69BE
:104C480028491343CB62274BDB6A264A23F4807337
:104C5800D362244B5A6C244B13407A68D269D20031
:104C6800204913434B641F4BDB6A1E4A43F480738D
:104C7800D3623B68002B06D11A4BDB6A194A43F40E
:104C88008003D3620FE03B68012B06D1154BDB6A2A
:104C9800144A43F40003D36205E0124BDB6A114A5D
:104CA80043F08073D3620F4B1B680E4A43F0805366
:104CB8001360FCF771F8B86008E0FCF76DF802467D
:104CC800BB68D31A022B01D9032306E0054B1B68E6
:104CD80003F00053002BF0D0FB7B18461037BD467D
:104CE80080BD00BF004402580700FFFF80B582B0B6
:104CF80000AF78607B68002B01D1012342E07B681C
:104D0800D3F88830002B06D17B68002283F88420F2
:104D18007868FBF7F9FE7B682422C3F888207B6853
:104D28001B681A687B681B6822F001021A607868A1
:104D380000F094FC0346012B01D1012322E07B689B
:104D48009B6A002B02D0786801F0F0F97B681B6839
:104D58005A687B681B6822F490425A607B681B681B
:104D68009A687B681B6822F02A029A607B681B6835
:104D78001A687B681B6842F001021A60786801F0C3
:104D880077FA034618460837BD4680BD80B58AB015
:104D980002AFF860B9603B601346FB80FB68D3F84C
:104DA8008830202B7BD1BB68002B02D0FB88002BDE
:104DB80001D1012374E0FB680022C3F89020FB684E
:104DC8002122C3F88820FBF7E7FF7861FB68FA889F
:104DD800A3F85420FB68FA88A3F85620FB689B6860
:104DE800B3F5805F08D1FB681B69002B04D1002351
:104DF800FB61BB68BB6103E0BB68FB610023BB616F
:104E080030E03B6800937B6900228021F86801F05C
:104E1800D9FA0346002B05D0FB682022C3F8882066
:104E280003233DE0FB69002B0BD1BB691B881A46A5
:104E3800FB681B68C2F308029A62BB690233BB6154
:104E480007E0FB691A78FB681B689A62FB69013303
:104E5800FB61FB68B3F856309BB2013B9AB2FB6822
:104E6800A3F85620FB68B3F856309BB2002BC8D184
:104E78003B6800937B6900224021F86801F0A2FAA0
:104E88000346002B05D0FB682022C3F888200323A3
:104E980006E0FB682022C3F88820002300E00223F4
:104EA80018462037BD4680BD80B5BAB000AF7860DF
:104EB8007B681B68DB69C7F8E4307B681B681B6884
:104EC800C7F8E0307B681B689B68C7F8DC30D7F808
:104ED800E42040F60F031340C7F8D830D7F8D8308D
:104EE800002B1BD1D7F8E43003F02003002B15D09A
:104EF800D7F8E03003F02003002B05D1D7F8DC30D9
:104F080003F08053002B09D07B685B6F002B00F007
:104F180077837B685B6F7868984771E3D7F8D830F8
:104F2800002B00F02381D7F8DC208D4B1340002B99
:104F380006D1D7F8E0208B4B1340002B00F01681E8
:104F4800D7F8E43003F00103002B11D0D7F8E03094
:104F580003F48073002B0BD07B681B6801221A6254
:104F68007B68D3F8903043F001027B68C3F8902047
:104F7800D7F8E43003F00203002B11D0D7F8DC3067
:104F880003F00103002B0BD07B681B6802221A6216
:104F98007B68D3F8903043F004027B68C3F8902014
:104FA800D7F8E43003F00403002B11D0D7F8DC3035
:104FB80003F00103002B0BD07B681B6804221A62E4
:104FC8007B68D3F8903043F002027B68C3F89020E6
:104FD800D7F8E43003F00803002B17D0D7F8E030F7
:104FE80003F02003002B05D1D7F8DC205C4B1340DD
:104FF800002B0BD07B681B6808221A627B68D3F8E9
:10500800903043F008027B68C3F89020D7F8E4306A
:1050180003F40063002B12D0D7F8E03003F080636C
:10502800002B0CD07B681B684FF400621A627B6807
:10503800D3F8903043F020027B68C3F890207B6857
:10504800D3F89030002B00F0DD82D7F8E43003F07D
:105058002003002B13D0D7F8E03003F02003002BF7
:1050680005D1D7F8DC3003F08053002B07D07B68DC
:105078005B6F002B03D07B685B6F786898477B6811
:10508800D3F89030C7F8D4307B681B689B6803F06E
:105098004003402B05D0D7F8D43003F02803002B69
:1050A80054D0786801F0F6F97B681B689B6803F0B8
:1050B8004003402B46D17B681B680833C7F89C30F7
:1050C800D7F89C3053E8003FC7F89830D7F89830A5
:1050D80023F04003C7F8D0307B681B680833D7F843
:1050E800D020C7F8A820C7F8A430D7F8A410D7F85C
:1050F800A82041E80023C7F8A030D7F8A030002B3B
:10510800D9D17B68D3F88030002B17D07B68D3F8CF
:105118008030154A1A657B68D3F880301846FCF74A
:1051280021FB0346002B19D07B68D3F880301B6D18
:105138007A68D2F88020104698470FE0786800F027
:1051480077FA0BE0786800F073FA07E0786800F007
:105158006FFA7B680022C3F8902053E200BF51E247
:105168000100001020010004696500087B68DB6EFF
:10517800012B40F0E781D7F8E43003F01003002B4F
:1051880000F0E081D7F8E03003F01003002B00F0C6
:10519800D9817B681B6810221A627B681B689B6830
:1051A80003F04003402B40F051817B68D3F88030F6
:1051B8001B68964A934268D07B68D3F880301B6896
:1051C800934A934261D07B68D3F880301B68914A38
:1051D80093425AD07B68D3F880301B688E4A93423A
:1051E80053D07B68D3F880301B688C4A93424CD0EC
:1051F8007B68D3F880301B68894A934245D07B6826
:10520800D3F880301B68874A93423ED07B68D3F836
:1052180080301B68844A934237D07B68D3F880304B
:105228001B68824A934230D07B68D3F880301B6871
:105238007F4A934229D07B68D3F880301B687D4A27
:10524800934222D07B68D3F880301B687A4A934215
:105258001BD07B68D3F880301B68784A934214D0FF
:105268007B68D3F880301B68754A93420DD07B6801
:10527800D3F880301B68734A934206D07B68D3F812
:1052880080301B68704A934206D17B68D3F880301F
:105298001B685B689BB205E07B68D3F880301B68AD
:1052A8005B689BB2A7F8BE30B7F8BE30002B00F0A1
:1052B800AB817B68B3F85C30B7F8BE209A4280F0C7
:1052C800A3817B68B7F8BE20A3F85E207B68D3F87B
:1052D8008030DB69B3F5807F00F087807B681B68CE
:1052E800C7F88830D7F8883053E8003FC7F88430CB
:1052F800D7F8843023F48073C7F8B8307B681B680C
:105308001A46D7F8B830C7F89430C7F89020D7F8BD
:105318009010D7F8942041E80023C7F88C30D7F8CC
:105328008C30002BDAD17B681B6808337B677B6F76
:1053380053E8003F3B673B6F23F00103C7F8B430E5
:105348007B681B680833D7F8B420C7F88020FB6750
:10535800F96FD7F8802041E80023BB67BB6F002BAB
:10536800E1D17B681B6808333B663B6E53E8003F1E
:10537800FB65FB6D23F04003C7F8B0307B681B6802
:105388000833D7F8B020FA66BB66B96EFA6E41E802
:1053980000237B667B6E002BE3D17B682022C3F859
:1053A8008C207B680022DA667B681B68FB64FB6CD8
:1053B80053E8003FBB64BB6C23F01003C7F8AC3064
:1053C8007B681B681A46D7F8AC30BB657A65796D7F
:1053D800BA6D41E800233B653B6D002BE4D17B6847
:1053E800D3F880301846FBF79FFE7B6802221A67C5
:1053F8007B68B3F85C207B68B3F85E309BB2D31A45
:105408009BB21946786800F01DF9FDE010000240D3
:10541800280002404000024058000240700002404C
:1054280088000240A0000240B80002401004024078
:10543800280402404004024058040240700402401C
:1054480088040240A0040240B80402407B68B3F814
:105458005C207B68B3F85E309BB2D31AA7F8CE30D5
:105468007B68B3F85E309BB2002B00F0CF80B7F8B2
:10547800CE30002B00F0CA807B681B68BB63BB6B17
:1054880053E8003F7B637B6B23F49073C7F8C83005
:105498007B681B681A46D7F8C8307B643A64396C55
:1054A8007A6C41E80023FB63FB6B002BE4D17B683B
:1054B8001B6808337B627B6A53E8003F3B623A6AA9
:1054C800554B1340C7F8C4307B681B680833D7F8BE
:1054D800C4203A63FB62F96A3A6B41E80023BB6275
:1054E800BB6A002BE3D17B682022C3F88C207B6841
:1054F8000022DA667B6800225A677B681B683B617A
:105508003B6953E8003FFB60FB6823F01003C7F8D2
:10551800C0307B681B681A46D7F8C030FB61BA6197
:10552800B969FA6941E800237B617B69002BE4D102
:105538007B6802221A67B7F8CE301946786800F0FF
:1055480081F863E0D7F8E43003F48013002B0ED021
:10555800D7F8DC3003F48003002B08D07B681B6885
:105568004FF480121A62786801F03BF851E0D7F8DE
:10557800E43003F08003002B14D0D7F8E03003F0B8
:105588008003002B05D1D7F8DC3003F40003002B8F
:1055980008D07B689B6F002B3AD07B689B6F78683C
:1055A800984735E0D7F8E43003F04003002B09D0E2
:1055B800D7F8E03003F04003002B03D0786800F000
:1055C800E5FF26E0D7F8E43003F40003002B09D008
:1055D800D7F8E03003F08043002B03D0786801F05F
:1055E80014F816E0D7F8E43003F08073002B10D0DD
:1055F800D7F8E030002B0CDA786800F0FCFF08E000
:1056080000BF06E000BF04E000BF02E000BF00E00A
:1056180000BFE837BD4680BDFEFFFFEF80B483B012
:1056280000AF786000BF0C37BD465DF8047B70475B
:1056380080B483B000AF786000BF0C37BD465DF81A
:10564800047B704780B483B000AF78600B467B80E2
:1056580000BF0C37BD465DF8047B70472DE9B04F9D
:1056680092B000AF7861002387F842307B699A686E
:105678007B691B691A437B695B691A437B69DB6930
:1056880013437B647B691B681A68BE4B13407A69B5
:105698001268796C0B4313607B691B685B6823F4A1
:1056A80040517B69DA687B691B680A435A607B69E9
:1056B8009B697B647B691B68B34A934204D07B690E
:1056C8001B6A7A6C13437B647B691B689A68AF4BCF
:1056D80013407A691268796C0B4393607B691B6885
:1056E800DB6A23F00F017B695A6A7B691B680A43EE
:1056F800DA627B691B68A64A934277D1A54B5B6D3A
:1057080003F03803282B6DD801A252F823F000BF0C
:10571800BD570008ED570008ED570008ED57000881
:10572800ED570008ED570008ED570008ED57000841
:10573800C5570008ED570008ED570008ED57000859
:10574800ED570008ED570008ED570008ED57000821
:10575800CD570008ED570008ED570008ED57000831
:10576800ED570008ED570008ED570008ED57000801
:10577800D5570008ED570008ED570008ED57000809
:10578800ED570008ED570008ED570008ED570008E1
:10579800DD570008ED570008ED570008ED570008E1
:1057A800ED570008ED570008ED570008ED570008C1
:1057B800E5570008012387F8433022E2042387F8DD
:1057C80043301EE2082387F843301AE2102387F893
:1057D800433016E2202387F8433012E2402387F84B
:1057E80043300EE2802387F843300AE27B691B6866
:1057F800694A934230D1674B5B6D03F00703052B71
:1058080026D801A252F823F0295800083158000878
:1058180039580008415800084958000851580008EC
:10582800002387F84330ECE1042387F84330E8E1AC
:10583800082387F84330E4E1102387F84330E0E198
:10584800202387F84330DCE1402387F84330D8E150
:10585800802387F84330D4E17B691B684F4A934221
:1058680030D14C4B5B6D03F00703052B26D801A202
:1058780052F823F0955800089D580008A5580008CC
:10588800AD580008B5580008BD580008002387F82F
:105898004330B6E1042387F84330B2E1082387F8A0
:1058A8004330AEE1102387F84330AAE1202387F87C
:1058B8004330A6E1402387F84330A2E1802387F8EC
:1058C80043309EE17B691B68354A934230D1314BA6
:1058D8005B6D03F00703052B26D801A252F823F0CD
:1058E80001590008095900081159000819590008F8
:1058F8002159000829590008002387F8433080E11E
:10590800042387F843307CE1082387F8433078E1A3
:10591800102387F8433074E1202387F8433070E17F
:10592800402387F843306CE1802387F8433068E1EF
:105938007B691B681B4A934242D1164B5B6D03F08F
:105948000703052B38D801A252F823F06D59000837
:10595800755900087D59000885590008B159000893
:10596800B9590008002387F843304AE1042387F82F
:10597800433046E1082387F8433042E1102387F893
:1059880043303EE1F369FFCF000C0058FFF4FF11EC
:105998000010014000440258004400400048004004
:1059A800004C004000500040202387F8433028E195
:1059B800402387F8433024E1802387F8433020E1EF
:1059C8007B691B68CB4A934276D1CB4B5B6D03F066
:1059D8003803282B6CD801A252F823F0895A000802
:1059E800B95A0008B95A0008B95A0008B95A000843
:1059F800B95A0008B95A0008B95A0008915A00085B
:105A0800B95A0008B95A0008B95A0008B95A000822
:105A1800B95A0008B95A0008B95A0008995A000832
:105A2800B95A0008B95A0008B95A0008B95A000802
:105A3800B95A0008B95A0008B95A0008A15A00080A
:105A4800B95A0008B95A0008B95A0008B95A0008E2
:105A5800B95A0008B95A0008B95A0008A95A0008E2
:105A6800B95A0008B95A0008B95A0008B95A0008C2
:105A7800B95A0008B95A0008B95A0008B15A0008BA
:105A8800012387F84330BCE0042387F84330B8E0AB
:105A9800082387F84330B4E0102387F84330B0E098
:105AA800202387F84330ACE0402387F84330A8E050
:105AB800802387F84330A4E07B691B688F4A9342B0
:105AC80030D18D4B5B6D03F00703052B26D801A25F
