:020000040800F2
:1000000000000824C50300081504000815040008B2
:10001000150400081504000815040008000000007D
:1000200000000000000000000000000015040008AF
:10003000150400080000000015040008150400085D
:10004000150400081504000815040008150400082C
:10005000150400081504000815040008150400081C
:10006000150400081504000815040008150400080C
:1000700015040008150400081504000815040008FC
:1000800015040008150400081504000815040008EC
:1000900015040008150400081504000815040008DC
:1000A00015040008150400081504000815040008CC
:1000B00015040008150400081504000815040008BC
:1000C00015040008150400081504000815040008AC
:1000D000150400081504000815040008150400089C
:1000E00015040008150400080000000015040008AD
:1000F000150400081504000815040008150400087C
:10010000150400081504000815040008150400086B
:10011000150400081504000815040008150400085B
:10012000150400081504000815040008150400084B
:10013000150400081504000815040008150400083B
:10014000000000001504000800000000000000008E
:10015000150400081504000815040008150400081B
:10016000150400081504000815040008150400080B
:10017000150400081504000815040008000000001C
:10018000000000000000000015040008150400082D
:1001900015040008150400081504000815040008DB
:1001A00015040008150400081504000815040008CB
:1001B00015040008150400081504000815040008BB
:1001C00015040008150400081504000815040008AB
:1001D000150400081504000815040008150400089B
:1001E000150400081504000815040008150400088B
:1001F000150400081504000815040008150400087B
:10020000150400081504000815040008150400086A
:10021000150400081504000815040008150400085A
:10022000150400081504000815040008000000006B
:10023000150400081504000800000000150400085B
:10024000150400081504000815040008150400082A
:10025000150400081504000815040008150400081A
:10026000150400081504000815040008150400080A
:1002700015040008150400081504000815040008FA
:10028000150400080000000015040008000000002C
:08029000150400081504000824
:1002980010B5054C237833B9044B13B10448AFF3B8
:1002A80000800123237010BD00000024000000001E
:1002B8006004000808B5034B1BB103490348AFF3BA
:1002C800008008BD0000000004000024600400084D
:1002D80080B500AF284B1B68274A43F00103136021
:1002E800254B1B68244A43F002031360224B1B680A
:1002F800214A43F010031360204B1B681F4A43F048
:10030800010313601D4B1B681C4A23F00203136092
:100318001A4B1B68194A43F080531360174B1B682C
:10032800164A23F000531360154B1B68144A43F018
:1003380004031360124B1B68114A23F0080313606F
:10034800104B1B680F4A83F0200313600E4B1B6889
:100358000D4A83F0010313600B4B1B680A4A83F4B0
:1003680080431360094B1B68084A83F0020313603B
:1003780000F00EF8E4E700BFE04402580004025819
:10038800001002581400025814040258141002589D
:1003980080B483B000AF00237B6002E07B68013348
:1003A8007B607B68044A9342F8DB00BF00BF0C37D0
:1003B800BD465DF8047B7047809698000D488546D9
:1003C800AFF300800C480D490D4A002302E0D458D1
:1003D800C4500433C4188C42F9D30A4A0A4C002387
:1003E80001E013600432A242FBD300F011F8FFF7DA
:1003F8006FFFFEE70000082400000024000000242E
:1004080080040008000000241C000024FEE700000F
:1004180070B50D4D0D4C641BA4100026A64209D1E1
:100428000B4D0C4C00F018F8641BA4100026A642D3
:1004380005D170BD55F8043B98470136EEE755F8ED
:10044800043B98470136F2E778040008780400086E
:10045800780400087C040008F8B500BFF8BC08BCA4
:100468009E467047F8B500BFF8BC08BC9E4670476A
:04047800BD020008B9
:04047C0099020008D9
:04000005080003C527
:00000001FF
